:020000040800F2
:10000000001001209D010008490F0008930D000811
:10001000450F000879020008B32C0008000000001A
:100020000000000000000000000000002125000882
:10003000190800080000000035100008B526000867
:10004000C3010008C3010008C3010008C301000880
:10005000C3010008C30100081D080008C30100080F
:10006000C3010008C3010008C3010008C301000860
:10007000C3010008C3010008C3010008C301000850
:10008000C3010008C3010008C3010008C301000840
:10009000C3010008C3010008C3010008C301000830
:1000A000C3010008C3010008C3010008C301000820
:1000B00025270008C3010008C3010008C301000888
:1000C000C3010008C3010008C3010008C301000800
:1000D000C3010008C30100085D290008DD290008EC
:1000E000C3010008C3010008C3010008C3010008E0
:1000F000C3010008C3010008C3010008C3010008D0
:10010000C301000865140008C3010008C30100080A
:10011000C3010008C3010008C3010008C3010008AF
:10012000C3010008C3010008C3010008C30100089F
:10013000C3010008C3010008C3010008C30100088F
:10014000C3010008C3010008C3010008C30100087F
:10015000C3010008C3010008C3010008C30100086F
:10016000C3010008C3010008C3010008C30100085F
:10017000C3010008C3010008C3010008C30100084F
:10018000C3010008C3010008DFF80CD000F062F8DA
:1001900000480047B54400080010012009480168E4
:1001A00041F470010160084880470848004700009A
:1001B000FEE7FEE7FEE7FEE7FEE7FEE7FEE7FEE717
:1001C000FEE7FEE788ED00E0B92600088901000897
:1001D00040EA01039B0703D009E008C9121F08C0C9
:1001E000042AFAD203E011F8013B00F8013B521E49
:1001F000F9D27047D2B201E000F8012B491EFBD2C0
:1002000070470022F6E710B513460A460446194621
:10021000FFF7F0FF204610BD421C10F8011B00291B
:10022000FBD1801A704730B50B46014600202022D2
:10023000012409E021FA02F59D4205D303FA02F5F3
:10024000491B04FA02F52844151EA2F10102F1DC53
:1002500030BD0000064C074D06E0E06840F00103A9
:1002600094E8070098471034AC42F6D3FFF790FFAC
:10027000305000086050000800BFFEE770B54FF036
:10028000000005464FF48030044602E0A4F101006E
:10029000044624B1802001F0ADF80028F6D024B93E
:1002A0004FF003000546284670BD40F2FF5001F0B4
:1002B0004FF82846F8E700002DE9F04106464FF0D8
:1002C000000007464B480068054602E049480068C0
:1002D000054615F0450FF9D015F0040F09D04FF081
:1002E000030007464FF0040001F032F83846BDE83D
:1002F000F08115F0010F06D04FF00100074601F024
:1003000027F83846F3E701F06FF8B04204D04FF019
:10031000100007463846EAE740F2FF5001F018F8AF
:10032000002001F093F804463348044201D13846D6
:10033000DDE714F0004F01D01C20D8E714F0804F07
:1003400001D00920D3E714F0005F01D00A20CEE7E6
:1003500014F0805F01D00B20C9E714F0006F01D0CA
:100360000C20C4E714F0806F01D00D20BFE714F01B
:10037000807F01D00E20BAE714F4000F01D00F20C7
:10038000B5E714F4800F01D01020B0E714F4001F7B
:1003900001D01120ABE714F4801F01D01220A6E792
:1003A00014F4002F01D01320A1E714F4802F01D002
:1003B00014209CE714F4003F01D0152097E714F4B3
:1003C000803F01D0162092E714F4004F01D017208F
:1003D0008DE714F4804F01D0182088E714F4005FF3
:1003E00001D0192083E714F0080F01D01A207EE70E
:1003F00038467CE7342C014008E0FFFD70B54FF033
:100400000000054612480068044602E010480068F3
:10041000044614F0450FF9D014F0040F08D04FF043
:10042000030005464FF0040000F092FF284670BD1F
:1004300014F0010F06D04FF00100054600F088FFD0
:100440002846F4E740F2FF5000F082FF2846EEE72E
:10045000342C014070B54FF0000005460D4800688F
:10046000044602E00B480068044614F0450FF9D03A
:1004700014F0040F08D04FF0030005464FF00400BD
:1004800000F066FF284670BD40F2FF5000F060FFAC
:100490002846F8E7342C01402DE9F04106460F4686
:1004A0004FF00000804625480068054602E02348DA
:1004B0000068054615F0450FF9D015F0040F09D076
:1004C0004FF0030080464FF0040000F041FF40462B
:1004D000BDE8F08115F0010F06D04FF00100804615
:1004E00000F036FF4046F3E700F07EFFB04204D054
:1004F0004FF0100080464046EAE740F2FF5000F01F
:1005000027FF002000F0A2FF044614F4604F04D13E
:100510004FEA144038804046DAE714F4005F01D017
:100520001320D5E714F4804F01D01020D0E714F445
:10053000004F01D00F20CBE74046C9E7342C0140E3
:1005400070B54FF0000006464FF480300546154860
:100550000068044605E0A5F1010005461148006861
:10056000044614F0450F01D1002DF4D115B114F05B
:10057000040F08D04FF0030006464FF0040000F0CF
:10058000E7FE304670BD14F0400F08D04FF0000079
:1005900006464FF0400000F0DBFE3046F2E7304602
:1005A000F0E70000342C01400246094B9A4201D288
:1005B000084800E0084811F0005F04D0074B01EA4A
:1005C0000303C36003E0054B01EA03038360704744
:1005D0001064024000600240006402407D0F7D0F05
:1005E00021B1026842F00102026003E0026822F0D9
:1005F0000102026070470000016821F00101016002
:100600004FF00001016041608160C16001614FF005
:10061000210141614349884204D14FF03D01424AE2
:1006200091607EE03F491831884204D14FF47461F3
:100630003D4A916075E03B493031884204D14FF426
:100640007411394A91606CE036494831884204D1CE
:100650004FF07461344A916063E0324960318842FE
:1006600003D13249304AD1605BE02E49783188426B
:1006700003D12F492C4AD16053E02A499031884256
:1006800003D12C49284AD1604BE02649A831884241
:1006900004D14FF03D51244AD16042E026498842BE
:1006A00004D14FF03D01254A11603AE0224918314A
:1006B000884204D14FF47461204A116031E01E4930
:1006C0003031884204D14FF474111C4A116028E083
:1006D00019494831884204D14FF07461174A1160BA
:1006E0001FE015496031884203D11049144A116056
:1006F00017E011497831884203D10D49104A116041
:100700000FE00D499031884203D10A490C4A11602B
:1007100007E00949A831884203D14FF03D51084A0A
:100720001160704710600240006002403D000020F0
:10073000400F002000003D20106402400864024089
:100740000C64024021B1026842F02002026003E022
:10075000026822F020020260704710B511F0800F8D
:1007600009D022B1436943F08003436103E0436948
:1007700023F08003436180290DD032B1036801F07A
:100780001E0443EA0403036005E0036801F01E044D
:1007900023EA0403036010BD10B54FF000031A46AE
:1007A00003681A461B4B02EA03031A46CC680B681F
:1007B00043EA04034C6943EA04038C6943EA0403F3
:1007C000CC6943EA04030C6A43EA04034C6A43EA33
:1007D00004038C6A43EA04034C6B43EA04038C6B06
:1007E00043EA040343EA02031A46026043691A46D5
:1007F00022F007031A46D1E90B3443EA040343EA23
:1008000002031A4642610B6943604B6883608B6840
:10081000C36010BD3F801CF0704700001CB5012074
:1008200000F062F800B34FF0010000904FF00000BC
:100830008DF80600684600F073F80C48007800F167
:1008400001000A4908700978084601EBD0714FEAA7
:100850006101A0EB4101054A11704FF0010004490C
:10086000087000F03BF800BF1CBD000048000010FD
:100870004A0000100EB50121880300F009FC002198
:10088000084601F04FFE4FF0010001904FF00000CC
:100890008DF808004FF00C008DF809004FF00100B2
:1008A0008DF80A0001A800F03BF84FF006008DF823
:1008B00000004FF005008DF801008DF802004FF0A8
:1008C00001008DF80300684600F056FB0EBD0000E5
:1008D0000149086070470000143C0140014908606C
:1008E00070470000143C014001464FF000031846D9
:1008F0001A46094B1B6803EA01031A46074BD3F853
:10090000143C0B4204D01AB14FF00103184602E028
:100910004FF0000318467047003C01400030014092
:100920004FF0000211462C4A11468279002A4AD023
:100930002A4AD2F8002C036822EA0302274BC3F8A4
:10094000002C1A46D2F8042C036822EA0302244B36
:100950001A6002790A4411460A68036842EA0302EF
:100960000A601E4AD2F8082C036822EA03021B4BD5
:10097000C3F8082C1A46D2F80C2C036822EA0302AA
:10098000184B1A604279102A12D1144AD2F8082C56
:10099000036842EA0302114BC3F8082C1A46D2F846
:1009A0000C2C036842EA03020C4BC3F80C2C12E037
:1009B000094A114642790A4411460A68036842EA24
:1009C00003020A6007E002790A4411460A680368D4
:1009D00022EA03020A607047003C014000300140F7
:1009E000043C01400C3C01402DE9FC4107460D460A
:1009F0004FF0000006460446009001904FF00800BA
:100A0000684908604FF0100048604FF0400088606F
:100A10004FF00000C8604FF480600861084600F0A5
:100A200067FD1020FFF748FC044614B12046BDE8DE
:100A3000FC815D4800684FEA00405A4908604FF069
:100A4000370048604FF0400088604FF00000C860F9
:100A50004FF480600861084600F04AFD3720FFF738
:100A60002BFC04460CB12046E1E74FF0FF304F4924
:100A700008604FF0080048604FF0300088604FF089
:100A80000200C8604FF0000008614FF001004861AB
:100A9000084600F075FC4FF00000424908604FF036
:100AA000330048604FF0400088604FF00000C8609D
:100AB0004FF480600861084600F01AFD3320FFF70C
:100AC000FBFB04460CB12046B1E70BE04FF40010ED
:100AD00000F090FC30B100F005FD4DF8260006F165
:100AE000010006463248006840F22A610842EDD013
:100AF000082000F07FFC38B1082000F029FC4FF0FE
:100B000004000446204692E7022000F073FC38B14E
:100B1000022000F01DFC4FF002000446204686E74C
:100B2000202000F067FC38B1202000F011FC4FF0CD
:100B30000600044620467AE74FF4007000F05AFCA5
:100B400040B14FF4007000F003FC4FF00700044682
:100B500020466CE740F2FF5000F0FAFB00984FEAA5
:100B60000060009901F47F4140EA0120009901F4FE
:100B70007F0140EA1120009940EA11606860019805
:100B80004FEA0060019901F47F4140EA0120019998
:100B900001F47F0140EA1120019940EA11602860C8
:100BA000204644E7080100101C0000101C01001042
:100BB000342C01401FB50121082000F03DFA4FF40C
:100BC000704002904FF001008DF80C004FF00000D3
:100BD0008DF80E004FF003008DF80D004FF000006F
:100BE0008DF80F0002A90F4800F020F801210846F7
:100BF00000F022FA4FF0010000904FF000008DF855
:100C000004004FF001008DF806004FF003008DF84E
:100C100005004FF000008DF807006946024800F01B
:100C200005F81FBD000C024000000240F0B50A4666
:100C30004FF0000529462B462C4600BF5CE04FF0E4
:100C4000010505FA01F52B46156805EA03052C4652
:100C50009C424ED105684FEA41074FF0030606FA61
:100C600007F625EA0605056015794FEA410605FAFB
:100C700006F5066845EA060505601579012D02D0DE
:100C80001579022D22D185684FEA41074FF00306FE
:100C900006FA07F625EA0605856055794FEA41060A
:100CA00005FA06F5866845EA0605856045684FF051
:100CB000010606FA01F625EA0605456045689679BB
:100CC00006FA01F6B6B245EA06054560C5684FEA80
:100CD00041074FF0030606FA07F625EA0605C56048
:100CE000D5794FEA410605FA06F5C66845EA0605D4
:100CF000C56001F1010529461029A0D3F0BDF0B56A
:100D00004FF000052B462C464FEA41754FEAD5655A
:100D100002FA05F52B464FEAE10600F1200555F8E9
:100D200026504FEA41764FEAD6674FF00F0606FA93
:100D300007F625EA06054FEAE10700F1200646F826
:100D400027504FEAE10600F1200555F8265045EA04
:100D500003052C464FEAE10600F1200545F8264040
:100D6000F0BD02464FF00003184613690B4203D052
:100D70004FF00103184602E04FF000031846704799
:100D80004183704701837047426982EA01024261F0
:100D9000704700BFFEE7000010B588B004464FF072
:100DA0000101084600F048F90121480400F05AF911
:100DB000072202213248FFF7A2FF07220321304811
:100DC000FFF79DFF4FF0040006904FF002008DF8F2
:100DD0001C004FF000008DF81F008DF81E004FF032
:100DE00002008DF81D0006A92548FFF71FFF4FF0F0
:100DF000080006904FF002008DF81C004FF0000034
:100E00008DF81F004FF001008DF81E004FF0030019
:100E10008DF81D0006A91A48FFF708FF02944FF04D
:100E20000000ADF80C00ADF80E00ADF81000ADF804
:100E300014004FF00C00ADF8120002A9114801F0A7
:100E400095FE012240F225510E4801F05CFE4FF064
:100E500026008DF804004FF001008DF805004FF0DA
:100E600000008DF806004FF001008DF8070001A882
:100E700000F082F80021034801F0E5FD08B010BD44
:100E8000000002400044004010B588B004464FF016
:100E900001014FF0080000F0CFF80121880400F0B4
:100EA000E1F8072209212548FFF729FF4FF40070D8
:100EB00006904FF002008DF81C004FF000008DF8F6
:100EC0001F004FF001008DF81E004FF003008DF859
:100ED0001D0006A91948FFF7A9FE02944FF0000073
:100EE000ADF80C00ADF80E00ADF81000ADF8140030
:100EF0004FF00C00ADF8120002A9114801F036FEC7
:100F0000002240F225510E4801F0FDFD4FF0270070
:100F10008DF804004FF002008DF805004FF001003D
:100F20008DF806008DF8070001A800F025F80121D2
:100F3000034801F088FD08B010BD0000000C02401D
:100F40000048004000BFFEE7704708B54FF4C0609E
:100F500000F066F84FF031008DF800004FF000000F
:100F60008DF801008DF802004FF001008DF80300AC
:100F7000684600F001F808BD70B54FF00004214646
:100F800023464FF00F042246C478A4B3214C2468B2
:100F900004F4E064C4F5E064C4F307242146C1F11D
:100FA0000404E4B2234642FA01F4E4B2224644784F
:100FB00004FA03F4E4B22146847804EA020444EA21
:100FC000010421464FEA01744FEA14642146124C91
:100FD00005786155047804F01F054FF0010404FA08
:100FE00005F405784FEA65154FF0E02606EB850518
:100FF000C5F800410DE0FFE7047804F01F054FF04D
:10100000010404FA05F4054D06784FEA661645F822
:10101000264070BD0CED00E000E400E080E100E05F
:10102000024940EA0101024A116070470000FA05D6
:101030000CED00E07047000039B1084A126842EA3E
:101040000002074BC3F8302806E0044A126822EA7F
:101050000002034BC3F830287047000030380240CC
:101060000030024039B1084A126842EA0002074BD8
:10107000C3F8402806E0044A126822EA0002034B43
:10108000C3F840287047000040380240003002405A
:1010900039B1084A126842EA0002074BC3F84428F3
:1010A00006E0044A126822EA0002034BC3F844280F
:1010B00070470000443802400030024039B1084A0D
:1010C000126842EA0002074BC3F8242806E0044AEB
:1010D000126822EA0002034BC3F82428704700007C
:1010E0002438024000300240F0B54FF00007394686
:1010F0003A463C464FF002073D464FF000073E4659
:101100004FF002073B463A4F3F6807F00C0739465D
:1011100021B1042905D0082936D105E0354F0760F3
:1011200035E0354F076032E0344F3F68C7F38057F2
:101130003E46334FD7F8047807F03F073B465EB191
:101140002D4FB7FBF3F7DFF8B8C0DCF804C8CCF3D9
:10115000881C07FB0CF40AE0264FB7FBF3F7DFF817
:10116000A0C0DCF804C8CCF3881C07FB0CF4234FA8
:101170003F68C7F3014707F101074FEA47073D46BC
:10118000B4FBF5F7076002E01A4F076000BF00BF2D
:10119000174F3F6807F0F00739464FEA11173946F5
:1011A000184F7F5C3A46076827FA02F74760144FEA
:1011B000D7F8087807F4E05739464FEA91273946BF
:1011C000104F7F5C3A46476827FA02F78760084F5E
:1011D0003F6807F4604739464FEA51373946094FAF
:1011E0007F5C3A46476827FA02F7C760F0BD000007
:1011F000083802400024F40000127A00043802404B
:1012000000300240000000107CB505464FF00000A1
:1012100004460090019000F019F910F0007F04D00E
:101220004FF00E00044620467CBD694646480068E3
:1012300080B2FFF7D9FB04460CB12046F4E7012D3C
:1012400040D1019810F4802F37D03F4800684FEA12
:1012500000403E4908604FF0370048604FF04000C2
:1012600088604FF00000C8604FF480600861084655
:1012700000F03EF93720FFF71FF804460CB1204676
:10128000D2E74FF00200314908604FF00600486095
:101290004FF0400088604FF00000C8604FF480605D
:1012A0000861084600F024F90620FFF705F8044617
:1012B0000CB12046B8E72046B6E74FF025000446BB
:1012C0002046B1E7019810F4803F37D01E480068EF
:1012D0004FEA00401D4908604FF0370048604FF06A
:1012E000400088604FF00000C8604FF480600861E3
:1012F000084600F0FDF83720FEF7DEFF04460CB18B
:10130000204691E74FF00000104908604FF00600BA
:1013100048604FF0400088604FF00000C8604FF414
:1013200080600861084600F0E3F80620FEF7C4FF7D
:1013300004460CB1204677E7204675E74FF02500BC
:101340000446204670E700001C0000100801001051
:101350000149086070470000382C014001490860CD
:1013600070470000382C01400149086070470000B8
:10137000A080254201490860704700008C85254205
:101380004FF0000211460F4B02681A600E4B426884
:10139000C3F8282C0D4A1268114621F0F7021146B5
:1013A000D0E9022342EA0302036942EA03024369E5
:1013B00042EA030242EA01021146034AC2F82C1C27
:1013C00070470000242C0140002001402C2C0140DB
:1013D00010B50121C802FFF771FE00214FF4006033
:1013E000FFF76CFE10BD000001480068C0B27047F6
:1013F000102C014001464FF000021046054A1268C9
:101400000A4203D04FF00102104602E04FF0000202
:1014100010467047342C014001464FF00002104640
:10142000054A12680A4203D04FF00102104602E05A
:101430004FF0000210467047342C0140024800680B
:1014400000F0030070470000002C014001464FF0FF
:101450000000024602480844024610687047000037
:10146000142C014010B500F0BDFD10BD39B1084A83
:10147000126842EA0002074BC3F83C2C06E0044A1B
:10148000126822EA0002034BC3F83C2C70470000AC
:101490003C2C0140002001404FF0000211460F4A51
:1014A0001268114647F6FF6221EA02021146027DE8
:1014B000836842EA0302436842EA0302C36842EADD
:1014C0000302036842EA0302036942EA030242EAB2
:1014D00001021146024AC2F8041C7047042C014064
:1014E000002001400148006870470000802C014046
:1014F0004FF0000211460E4B02681A600D4AD2F8F6
:101500000C2C11464FEAD1224FEAC2221146D0E9F3
:10151000012342EA0302C36842EA0302036942EA82
:10152000030242EA01021146034A116070470000BB
:10153000082C0140002001400C2C014001490860AA
:1015400070470000002C014010B54FF00100044628
:101550004FF004010448FFF704FC10B14FF0000005
:101560000446204610BD00000008024070B5044645
:101570004FF00000054626480068032804D14FF0CC
:1015800027000546284670BD2148006838B120482C
:101590000068012803D01E480068022835D1B4F540
:1015A000805F04D14FF0270005462846EBE7B4F5ED
:1015B000006F17D10120FFF727FE05462DBB4FF026
:1015C0000200144908754FF0000008604860886008
:1015D0004FF40060C8604FF0000008610846FFF754
:1015E0005BFF12E00020FFF70FFE05466DB94FF0DC
:1015F0000200084908754FF00000086048608860E4
:10160000C86008610846FFF747FF2846BBE70000AF
:1016100018000010F0000010F0B501464FF0000374
:1016200018461A46ED4B1B6881F85630EC4B1B6888
:10163000A1F85430EB4B1B684FEA13631A464FEA8C
:1016400092130B70C2F383034B7002F003038B7091
:10165000E44B1B68C3F307431A46CA70E14B1B688F
:10166000C3F307231A460A71DE4B1B68DBB21A4626
:101670004A71DC4B5B684FEA13631A464FEA021368
:10168000CB80D84B5B68C3F307431A46CB8843EA49
:101690001213CB8002F00F030B72D24B5B68C3F3C3
:1016A00007231A464FEAD2134B72C2F380138B7290
:1016B000C2F34013CB72C2F300130B734FF000035D
:1016C0004B73C64B1B681BB1C44B1B68012B64D109
:1016D0004FEA82734FEA13530B61C24B5B68DBB274
:1016E0001A460B6943EA82030B61BE4B9B684FEAC3
:1016F00013631A460B6943EA92130B61C2F3C203E8
:101700000B7502F007034B75B64B9B68C3F3074399
:101710001A464FEA52138B75C2F38203CB754FEA18
:1017200082734FEA53730B76AE4B9B68C3F3072368
:101730001A460B7E43EAD2130B760B6903F10103C1
:101740004FF00004C1E912340B7ED1E9126403F1B9
:1017500002034FF0010505FA03F34FEAE3752F4644
:10176000A6FB035C04FB03C306FB0733C1E912536A
:101770000C7A4FF0010303FA04F30B654FF00006F7
:101780003746D1E912450B6DA4FB036C05FB03C37F
:1017900004FB0733C1E912632FE0904B1B68022B57
:1017A0002BD1904B5B68DBB21A464FEA82634FEA5B
:1017B00093230B618B4B9B684FEA13631A460B69AB
:1017C00043EA02230B61874B9B68C3F307431A4626
:1017D0000B6943EA02030B61824B9B68C3F3072347
:1017E0001A460B6903F101034FF40024A3FB0434F0
:1017F000C1E912344FF400730B65C2F3801301F892
:10180000193F4FEA82634FEA53634B70754B9B68F5
:10181000DBB21A464B7843EAD2134B7002F07F03D7
:101820008B70704BDB684FEA13631A464FEAD21392
:10183000CB70C2F341130B71C2F382034B714FEAB9
:1018400082734FEA13738B71664BDB68C3F30743F4
:101850001A468B7943EA92138B71C2F34013CB7112
:101860004FF000030B7202F001034B725D4BDB681B
:10187000C3F307231A464FEAD2138B72C2F38013C5
:10188000CB72C2F340130B73C2F300134B73C2F35A
:1018900081038B7302F00303CB73524BDB68DBB223
:1018A0001A464FEA52030B744FF001034B744E4B30
:1018B0001B684FEA13631A46CA74A1F119014A4B17
:1018C0001B68C3F307431A464FEA0223CB85464BF6
:1018D0001B68C3F307231A46CB8D43EA0203CB856B
:1018E000414B1B68DBB21A464FEA02640C633E4B65
:1018F0005B684FEA13631A460B6B43EA02440C63BE
:10190000394B5B68C3F307431A460B6B43EA022467
:101910000C63354B5B68C3F307231A460B6B43EA32
:1019200002030B63304B5B68DBB21A464FF03403A3
:101930005A542D4B9B684FEA13631A464FF03503F8
:101940005A54294B9B68C3F307431A464FEA026473
:101950008C63254B9B68C3F307231A468B6B43EAC2
:1019600002448C63204B9B68DBB21A468B6B43EAC4
:1019700002248C631C4BDB684FEA13631A468B6BA3
:1019800043EA02038B63184BDB68C3F307431A4631
:101990004FF03C035B5C43EA12134FF03C0463548A
:1019A0004FEA02734FEA1353CB870F4BDB68C3F345
:1019B00007231A46CB8F43EA0203CB870A4BDB6827
:1019C000DBB21A464FEA52034FF0400463544FF023
:1019D00001044FF041035C54F0BD000018000010FA
:1019E0001C000010680000107800001008B54FF0CF
:1019F00000000090FFF7A8FD012809D1684600F01B
:101A0000F1FB08B1FF2008BD0098C0F34320FAE7BE
:101A1000FF20F8E710B54FF004000446FFF7E6FF9B
:101A20000446042C01D1002010BDFF2C01D102205E
:101A3000FAE70120F8E7000010B54FF00000044677
:101A400000F084F9FFF7C4FC00F0E8F904460CB19B
:101A5000204610BD00F02CF804460CB12046F8E7F3
:101A60004FF00200104908754FF000000860486010
:101A70008860C86008610846FFF70EFD0B48FFF755
:101A8000CBFD04463CB90949B1F854100904084695
:101A900000F088FB044624B94FF40060FFF766FDB0
:101AA00004462046D5E70000F00000109800001022
:101AB00038B54FF0000004464FF001000090FFF7EA
:101AC000BDFC20B94FF025000446204638BD4B48E8
:101AD000006804282CD04FF00000494908604FF0FE
:101AE000020048604FF0C00088604FF00000C860FE
:101AF0004FF4806008610846FFF7FAFCFEF77EFCB1
:101B000004460CB12046E1E70020FFF79FFC3D4969
:101B100008600420FFF79AFC3A4948600820FFF764
:101B200095FC384988600C20FFF790FC3549C86067
:101B30003248006858B131480068012807D02F4862
:101B40000068062803D02D48006802281AD14FF0FB
:101B500000002B4908604FF0030048604FF0400040
:101B600088604FF00000C8604FF48060086108464C
:101B7000FFF7BEFC69460320FEF78EFC04460CB15D
:101B80002046A3E71D480068042832D0BDF80000B5
:101B90001D490860BDF800004FEA00401849086080
:101BA0004FF0090048604FF0C00088604FF000001F
:101BB000C8604FF4806008610846FFF799FCFEF7A3
:101BC0001DFC04460CB1204680E70020FFF73EFCD8
:101BD0000E4908600420FFF739FC0C4948600820D2
:101BE000FFF734FC094988600C20FFF72FFC0749F8
:101BF000C8604FF000000446204667E71800001058
:101C000008010010780000101C000010680000108F
:101C100030B58FB004460D464FF0FA512148FEF71B
:101C2000C3FC00211F48FEF7DBFC1E48FEF7E4FC66
:101C30004FF0006000901C48019002944FF00000AB
:101C40000390049005904FF4806006904FF480500C
:101C500007904FF4804008904FF0000009904FF437
:101C600040300A904FF004000B904FF003000C90AE
:101C70004FF400000D904FF400100E906946094893
:101C8000FEF78AFD012210210648FEF766FD20219D
:101C90000448FEF757FD01210248FEF7A1FC0FB0F2
:101CA00030BD000058640240802C014030B58FB038
:101CB00004460D464FF0FA512248FEF775FC00210C
:101CC0002048FEF78DFC1F48FEF796FC4FF00060A1
:101CD00000901D48019002944FF0400003904FF097
:101CE0000000049005904FF4806006904FF48050FF
:101CF00007904FF4804008904FF0000009904FF497
:101D000040300A904FF004000B904FF003000C900D
:101D10004FF400000D904FF400100E9069460948F2
:101D2000FEF73AFD012210210648FEF716FD20219C
:101D30000448FEF707FD01210248FEF751FC0FB0F1
:101D400030BD000058640240802C01401CB50121C8
:101D50000C20FFF771F90C2208212E48FEF7CFFF67
:101D60000C2209212B48FEF7CAFF0C220A21294820
:101D7000FEF7C5FF0C220B212648FEF7C0FF0C2200
:101D800011462448FEF7BBFF0C2202212248FEF731
:101D9000B6FF4FF4706000904FF001008DF8050021
:101DA0004FF002008DF804004FF000008DF806009F
:101DB0004FF001008DF8070069461648FEF736FF20
:101DC0004FF00400009069461348FEF72FFF4FF4D0
:101DD000805000904FF000008DF8070069460D48D4
:101DE000FEF724FF4FF0040000904FF000008DF844
:101DF00004004FF001008DF8070069460548FEF722
:101E000015FF0121C802FFF743F901218805FFF7FB
:101E100013F91CBD00080240000C02402DE9F041FE
:101E20004FF00000044606460546074680464FF040
:101E30007600684908754FF00000086048608860C7
:101E4000C86008610846FFF727FB0320FFF776FB11
:101E50000120FFF789FA4FF000005F4908604860F1
:101E60008860C8604FF4806008610846FFF740FB57
:101E7000FEF704FA044614B12046BDE8F0814FF4A1
:101E8000D570554908604FF0080048604FF0400099
:101E900088604FF00000C8604FF480600861084619
:101EA000FFF726FBFEF74CFB04463CB94FF0010060
:101EB0004A4908604FF08040804616E04FF000002D
:101EC000454908604FF0370048604FF04000886097
:101ED0004FF00000C8604FF4806008610846FFF7CB
:101EE00007FB3720FEF7E8F904464FF000003A49B7
:101EF00008604FF0370048604FF0400088604FF0B6
:101F00000000C8604FF4806008610846FFF7F0FAEF
:101F10003720FEF7D1F90446002C58D141E04FF0AC
:101F200000002D4908604FF0370048604FF0400036
:101F300088604FF00000C8604FF480600861084678
:101F4000FFF7D6FA3720FEF7B7F904460CB1204662
:101F500093E7234848EA00001F4908604FF0290032
:101F600048604FF0400088604FF00000C8604FF4B8
:101F7000806008610846FFF7BBFAFEF76BFA04467B
:101F80000CB1204679E70020FFF760FA06464FF0D3
:101F9000010080EAD67080F00100074605F10100DB
:101FA00005461FB94FF6FF708542B8D34FF6FF7054
:101FB000854204D34FF01B00044620465DE706F03F
:101FC0008040060003D04FF002000449086020461C
:101FD00053E70000F0000010080100101800001086
:101FE0000000108010B54FF48070FFF715FA60B153
:101FF0004FF00000274908704FF48070FFF7AEF9EA
:102000004FF00100244908603CE00220FFF704FA89
:1020100038B10220FFF7A2F94FF002001D49087005
:1020200030E00820FFF7F8F938B10820FFF796F9FB
:102030004FF004001749087024E02020FFF7ECF966
:1020400038B12020FFF78AF94FF0060011490870D7
:1020500018E01020FFF7E0F938B11020FFF77EF903
:102060004FF005000B4908700CE04FF40070FFF7CB
:10207000D3F938B14FF40070FFF770F94FF0070053
:102080000449087000214CF23A30FFF7EFF901489B
:10209000007810BD24000010280000102DE9F04148
:1020A00080460D4614461E464FF00000074636494E
:1020B0000870364908604FF00100354908604FF05C
:1020C00000003449086034480068022803D14FF406
:1020D0000070044600E06543304804604FF0100093
:1020E0002E4948604FF0400088604FF00000C86003
:1020F0004FF4806008610846FFF7FAF91020FEF7F8
:10210000DBF8074617B13846BDE8F0814FF0FF30E5
:102110002349086006FB04F048604FF09000886097
:102120004FF00200C8604FF0000008614FF001005E
:1021300048610846FFF724F9184805604FF012007F
:10214000164948604FF0400088604FF00000C860BA
:102150004FF4806008610846FFF7CAF91220FEF7C5
:10216000ABF807460FB13846CEE7012140F22A30DE
:10217000FFF77CF90120FFF7FDF806FB04F140466C
:10218000FFF746FD3846BFE7240000102800001086
:10219000200000102C2C0140180000100801001035
:1021A0001C01001070B504464FF0000005460C48B5
:1021B00004604FF007000A4948604FF04000886013
:1021C0004FF00000C8604FF4806008610846FFF7D8
:1021D0008FF90720FEF770F80546284670BD00000D
:1021E0000801001070B504464FF00000054624B900
:1021F0004FF026000546284670BD114800684FEA9A
:102200000040104908604FF00D0048604FF040005A
:1022100088604FF00000C8604FF480600861084695
:10222000FFF766F90D20FEF747F805460DB1284681
:10223000E2E70020FFF70AF920602846DCE700000B
:102240001C0000100801001010B54FF000000446FB
:102250000B4908604FF00C0048604FF04000886068
:102260004FF00000C8604FF4806008610846FFF737
:102270003FF90C20FEF720F80446204610BD000070
:102280000801001070B54FF0000005464FF0FF3018
:10229000044602E0A4F1010004461A48006838B977
:1022A0001948006820B91948007808B9002CF1D104
:1022B0004FF00000134908604FF0FF30044602E081
:1022C000A4F1010004461248006810F4005F01D038
:1022D000002CF5D10F480068012802D1FFF7B4FFA8
:1022E00005461CB915B94FF00400054640F2FF50F1
:1022F000FFF72EF80548007810B10448007870BD4B
:102300002846FCE72C0000102800001024000010D4
:10231000342C01402000001070B54FF0000005463D
:102320004FF0FF30044602E0A4F1010004461A48D1
:10233000006838B91948006820B91948007808B908
:10234000002CF1D14FF00000134908604FF0FF302E
:10235000044602E0A4F1010004461248006810F4AB
:10236000805F01D0002CF5D10F480068012802D110
:10237000FFF76AFF05461CB915B94FF00400054682
:1023800040F2FF50FEF7E4FF0548007810B1044822
:10239000007870BD2846FCE72C00001028000010D3
:1023A00024000010342C0140200000102DE9F041E1
:1023B00080460F4614461E464FF000000546504921
:1023C0000870504908604FF001004F4908604FF015
:1023D00000004E4908604E480068022803D14FF4BF
:1023E0000070044600E067434A4804604FF0100064
:1023F000484948604FF0400088604FF00000C860D6
:102400004FF4806008610846FFF772F81020FDF76E
:1024100053FF054615B12846BDE8F0813E480068E7
:102420004FEA00403B4908604FF0370048604FF0EA
:10243000400088604FF00000C8604FF48060086181
:102440000846FFF755F83720FDF736FF05460DB172
:102450002846E1E72F4806604FF017002D494860F5
:102460004FF0400088604FF00000C8604FF480607B
:1024700008610846FFF73CF81720FDF71DFF0546E9
:102480000DB12846C8E7234807604FF019002149DD
:1024900048604FF0400088604FF00000C8604FF483
:1024A000806008610846FFF723F81920FDF704FF54
:1024B00005460DB12846AFE74FF0FF3017490860D9
:1024C00006FB04F048604FF0900088604FF0000079
:1024D000C86008614FF0010048610846FEF750FFF0
:1024E000012140F22A30FEF7C1FF0120FEF742FF32
:1024F00006FB04F14046FFF7D9FB28468CE70000B5
:102500002400001028000010200000102C2C014096
:1025100018000010080100101C0000101C01001021
:102520007047000030B54FF000031A464FEA817340
:102530004FEA13744FF00F0303FA04F31A460F4BDC
:102540004FEAA10453F8243023EA02030B4C4FEA6C
:10255000A10544F8253023464FEAA10453F824305E
:102560004FEA81744FEA147400FA04F443EA040356
:10257000024C4FEAA10544F8253030BD083801402F
:102580004FF0000211461046424A126842F480326F
:10259000414BC3F8002800BF3E4A126802F40032E3
:1025A000104601F10102114610B9B1F5A06FF3D147
:1025B000384A126812F4003F03D04FF0010210466F
:1025C00002E04FF00002104601284AD1334A126857
:1025D00042F08052304BC3F84028314A126842F42E
:1025E00040422F4B1A602F4A12682B4BC3F8082821
:1025F0001A46D2F8082842F40042C3F808281A46BE
:10260000D2F8082842F4A052264B1A60264A224BE0
:10261000C3F804281A46D2F8002842F080721D4BF5
:102620001A6000BF1B4A126812F0007FFAD040F215
:1026300005621E4B1A60184AD2F8082822F00302DD
:10264000154BC3F808281A46D2F8082842F00202AF
:10265000144B1A6000BF134A126802F00C02082AD9
:10266000F9D1104A126822F400020B4BC3F8082873
:102670000F4AC3F884281A46D2F8002842F0806234
:10268000044B1A6000BF034A126812F0006FFAD0C0
:1026900070470000003802400030024040380240DD
:1026A0000070004008380240083C4005003C0240F1
:1026B000003000507047000010B51548006840F029
:1026C00001001449C1F800084FF00000C1F80808E3
:1026D0000F480068104900EA01000D4908600F48E2
:1026E0000C49C1F804080846D0F8000820F48020FE
:1026F000074908604FF0000009490860FFF740FFF4
:102700004FF000604FF0E021C1F8080D10BD00004F
:102710000038024000300240FFFFF6FE1030002477
:102720000C3802401CB50121880700F066F800282B
:1027300046D024480068B0F57A7F0BD34FF00100F3
:10274000204908602048007820B14FF480511F488C
:10275000FEF71AFB1E48007830B31E4800681428A4
:102760001CD30120FEF7B4F84FF0010000904FF0A9
:1027700000008DF804004FF00C008DF805004FF0BC
:1027800001008DF806006846FEF7CAF84FF0000019
:102790000F4908704FF001000E4908600D480068AD
:1027A00000F101000B4908600648006800F10100D3
:1027B000044908604FF001014FF0804000F00CF830
:1027C0001CBD00004000001049000010000C024039
:1027D0004A000010440000106FEA010202827047B4
:1027E00021B1028842F00102028005E002884FF622
:1027F000FE7302EA03020280704730B502464FF0D2
:10280000000528462B462C46158A05EA01052B466D
:10281000958905EA01052C4623B11CB14FF001054D
:10282000284602E04FF00005284630BD10B522B121
:10283000838943EA0103838106E083896FEA010407
:10284000A4B203EA0403838110BD41627047000013
:102850004FF000031A4603881A461D4B98420ED0CB
:102860001C4B98420BD0B0F1804F08D01A4B9842C5
:1028700005D01A4B984202D0194B984208D14FF616
:102880008F7302EA03031A464B8843EA02031A468F
:10289000144B98420BD0144B984208D04FF6FF438C
:1028A00002EA03031A460B8943EA02031A4602802E
:1028B0004B68C3620B880385054B984202D0054BD9
:1028C000984201D18B7A03864FF0010383827047CF
:1028D00000000140000401400004004000080040E6
:1028E000000C004000100040001400401FB5012102
:1028F0000846FEF7B7FB4FF01C008DF800004FF0C4
:1029000007008DF802004FF001008DF803006846C3
:10291000FEF732FB4FF00A00029042F2CF00ADF812
:1029200004004FF00000ADF8060001A94FF0804010
:10293000FFF78EFF00214FF08040FFF786FF012157
:102940008807FFF749FF012211469007FFF76EFF46
:1029500001218807FFF744FF1FBD000010B540F2BA
:102960002551184800F08FF850B317480088C0B2BE
:1029700004464FF400511548FEF706FA2146144864
:10298000006802F08BF91348006800F1010011495A
:102990000860084600684FF47A71B0FBF1F201FB61
:1029A00012000C4908600846006818B94FF0010091
:1029B0000949087040F22551024800F02DF800BF87
:1029C00010BD00000044004004440040000C0240E0
:1029D00058000010500000104B00001010B540F2DD
:1029E00025510A4800F04FF870B109480088C0B27C
:1029F00004464FF480410748FEF7C6F940F22551DE
:102A0000024800F009F800BF10BD00000048004077
:102A100004480040000C024010B54FF0000422466C
:102A20002346A1F510646A3C00D100BF4FEA21247F
:102A300022464FF0010404FA02F4A4B223466FEADE
:102A40000304048010BD21B1828942F400528281C6
:102A500005E082894DF6FF7302EA03028281704726
:102A600002464FF000031846B1F5007F00D100BFC9
:102A700013880B4203D04FF00103184602E04FF0D9
:102A800000031846704770B502464FF00006344602
:102A9000334635463046A1F510666A3E00D100BF88
:102AA000C1F34216354601F01F0633464FF00106CA
:102AB00006FA03F63346012D04D1968906EA030689
:102AC00033460AE0022D04D1168A06EA030633468D
:102AD00003E0968A06EA030633464FEA2126344687
:102AE0004FF0010606FA04F63446168806EA040694
:102AF000344623B11CB14FF00106304602E04FF0DE
:102B00000006304670BDF0B503464FF000073C4666
:102B10003E463D463846A1F510676A3F00D100BFEA
:102B20001846C1F342173C4601F01F073E464FF0DE
:102B3000010707FA06F73D46012C03D100F10C0707
:102B4000384608E0022C03D100F11007384602E0B5
:102B500000F11407384622B1076847EA0507076005
:102B600003E0076827EA05070760F0BD2DE9FF4786
:102B700005460E464FF000000446814600BF8046E1
:102B8000B08900B100BF288A044624F440500446AE
:102B9000F08840EA040004462C82A889044641F2E9
:102BA0000C6024EA00000446B088318940EA010044
:102BB000718940EA010040EA04000446AC81A88A19
:102BC000044624F440700446B08940EA04000446F8
:102BD000AC826846FEF788FA2748854202D027482B
:102BE000854202D10398814601E002988146A88976
:102BF00010F4004F09D009EBC90000EB091031684F
:102C00004FEA4101B0FBF1F708E009EBC90000EB26
:102C1000091031684FEA8101B0FBF1F74FF0640011
:102C2000B7FBF0F04FEA001004464FEA14104FF0E3
:102C3000640101FB10708046A88910F4004F0BD08E
:102C40004FF0320000EBC800B0FBF1F000F00700DD
:102C500040EA040004460CE04FF0320000EB08109C
:102C60004FF06401B0FBF1F000F00F0040EA040007
:102C700004462C81BDE8FF8700100140001401408C
:102C8000C1F308028280704770B505460C460CE01F
:102C900000BF288810F0400FFBD02078014628465E
:102CA000FFF7EEFF04F10100044620780028EFD181
:102CB00070BD00BFFEE700000FB4054B10B503A9BF
:102CC000044A029800F018F810BC5DF814FB0000EC
:102CD000354200083800001002E008C8121F08C181
:102CE000002AFAD170477047002001E001C1121F8D
:102CF000002AFBD1704700002DE9FF4F8BB09A46A8
:102D00000F4605460026C9E0252837D100246D1C52
:102D10006649A04601222B78203B02FA03F00842C4
:102D200002D004436D1CF6E728782E2817D115F839
:102D3000010F44F004042A280ED06FF02F022878E7
:102D4000A0F1300109290AD808EB880102EB410102
:102D500000EB01086D1CF2E757F8048B6D1C287816
:102D600069283FD006DC002871D063280CD0642885
:102D700004D137E0732811D075284ED052460D99F2
:102D8000904706F1010688E017F8040B8DF8000063
:102D900000208DF80100E946012003E057F8049B6C
:102DA0004FF0FF3061074FF0000401D40AE0641CCB
:102DB00044450DDA8442FADB19F804100029F6D1F3
:102DC00006E0641C8442FCDB19F804100029F8D1E9
:102DD000264404E019F8010B52460D999047641EF1
:102DE000F8D25AE001CF4FF00A0B002804DAC0F104
:102DF00000004FF02D0102E0210504D52B218DF8B4
:102E00002410012103E0E10705D02021F7E70DF1AF
:102E1000200908910CE00021F9E701CF4FF00A0BDF
:102E2000F9E75946FDF7FFF901F1300209F8012DE4
:102E30000028F6D1ADEB090000F1200B600701D4AA
:102E40004FF00108D84503DDA8EB0B0001E029E0B5
:102E500000208046002406E009A85246005D0D9936
:102E60009047761C641C08988442F5DB04E030200F
:102E700052460D999047761CB8F10001A8F101085F
:102E8000F5DC05E019F8010B52460D999047761CC8
:102E9000BBF10001ABF1010BF4DC6D1C28780028BC
:102EA0007FF432AF0FB03046BDE8F08F0928010043
:102EB00070B504460D46617808464FF001032A4676
:102EC00004F1300100F011FD08B1032070BD94F849
:102ED0002E1294F82F0241EA0020A0F52A4155391C
:102EE00001D00220F2E794F86900010694F8680026
:102EF00041EA004194F8670041EA002094F8661026
:102F0000084320F07F400E49884201D10020DDE7D0
:102F100094F88500010694F8840041EA004194F891
:102F2000830041EA002094F88210084320F07F409B
:102F30000349884201D10020C8E70120C6E700000C
:102F400046415400024602E002F1010002461078B8
:102F500010B110788842F7D1107870472DE9F74FFB
:102F600088B008980068019001980078A0F13000BE
:102F70000790079809280BD8019840783A2807D17C
:102F8000019800F10200019008990198086002E0A0
:102F90004FF000000790079818B10B200BB0BDE868
:102FA000F08FE449079851F82040099804600CB963
:102FB0000C20F3E7207880B16178084600F0E7FC48
:102FC000814619F0010F08D10A9820B119F0040FB9
:102FD00001D00A20E2E70020E0E74FF00000207077
:102FE000079860706178084600F06AFC814619F025
:102FF000010F01D00320D1E70A9820B119F0040F86
:1030000001D00A20CAE74FF0000B59462046FFF7CF
:103010004FFF054600BF012D29D14FF0000ABAF13C
:10302000000F03D0AAF10100C0B282464FF4DF7056
:1030300000EB0A1104F1300001EB000898F80400DD
:10304000A8B198F80B004FEA006198F80A0041EA2D
:10305000004198F8090041EA002098F8081040EA79
:103060000100834659462046FFF722FF0546032DFF
:1030700001D1012092E70DB10D208FE73B20015DCA
:1030800094F83C0041EA0020B0F5007F01D00D200B
:1030900084E74FF04600015D94F8470041EA0027BD
:1030A00087B994F857004FEA006194F8560041EA56
:1030B000004194F8550041EA002094F8541040EA89
:1030C00001000746E7614FF04000065DE670012E03
:1030D00003D0022E01D00D2060E777434FF03D0072
:1030E000005D0646A0701EB1A6F10100304201D07D
:1030F0000D2053E74FF04100015D94F8420041EA92
:1031000000202081208910F00F0F01D00D2045E70D
:103110004FF04300015D94F8440041EA002006901E
:10312000069880B994F853004FEA006194F8520071
:1031300041EA004194F8510041EA002094F850100F
:1031400040EA010006904FF03E00015D94F83F0018
:1031500041EA00200290029808B90D201EE702986B
:103160003844218900EB11100590DDE90501814209
:1031700001D20D2012E7DDE90510A0EB0100A178D6
:10318000B0FBF1F00490049808B90D2006E74FF069
:103190000100054640F6F6710498884202D34FF0CC
:1031A000020005464FF6F6710498884202D34FF0AC
:1031B00003000546049800F10200A06105985844F8
:1031C000A062029858442062032D19D1208908B1C9
:1031D0000D20E3E694F85F004FEA006194F85E008A
:1031E00041EA004194F85D0041EA002094F85C1047
:1031F00040EA01006062A0694FEA8000039015E098
:10320000208908B90D20C9E6206A38446062022D81
:1032100003D1A0694FEA400007E0A06900F0010077
:10322000A16901EB410100EB51000390E1690398B2
:1032300000F2FF10B1EB502F01D20D20AEE64FF09F
:10324000FF3020614FF00000E060032D63D160711A
:1032500094F8601094F8610041EA002058446061DD
:1032600061690A46617808464FF0010304F13001B4
:1032700000F03BFBE8BB94F82E1294F82F0241EAD1
:103280000020A0F52A41553945D194F833000106B4
:1032900094F8320041EA004194F8310041EA0020FC
:1032A00094F8301008432449884234D194F8170226
:1032B000010694F8160241EA004194F8150241EA29
:1032C000002094F8141208431C49884223D194F832
:1032D0001F024FEA006194F81E0241EA004194F88F
:1032E0001D0241EA002094F81C1240EA0100E0604F
:1032F00000E010E094F81B024FEA006194F81A0213
:1033000041EA004194F8190241EA002094F81812A9
:1033100040EA0100206125700948008800F10100A1
:1033200080B207490880E0804FF00000E062207121
:1033300000BF33E6100000105252614172724161C9
:10334000140000100246A1F1020001469069A0F1AC
:103350000200884201D8002070479378906A01FBF0
:103360000300F9E72DE9F04704468946B9F1000F5B
:1033700008D1E76817B1A069B84213D84FF001002F
:1033800007460FE04946204600F0AAFF0646022EF7
:1033900002D20120BDE8F087A069B04201D93046D1
:1033A000F8E74F463D4600BF05F101000546A0691C
:1033B000A84206D84FF002000546BD4201D90020C0
:1033C000E8E72946204600F08BFF064606B909E0EB
:1033D000701C01D0012E01D13046DBE7BD42E3D1A4
:1033E0000020D7E700BF6FF070422946204601F069
:1033F00079FC8046B8F1000F08D1B9F1000F05D073
:103400002A464946204601F06DFC8046B8F1000F7F
:103410000BD1E5602069401C10D02069A0F10100AB
:1034200020614FF00100607108E0B8F1010F02D196
:103430004FF0FF3001E04FF0010005462846A9E7B4
:103440002DE9F35F01980068814602E009F101006F
:10345000814699F800002F28F8D099F800005C28E0
:10346000F4D0009886690B222021304601F08BFBB6
:103470004FF000052F46AB464FF0080A00BF5846F4
:103480000BF101018B4619F800000446202C03DDE6
:103490002F2C01D05C2C00D168E02E2C01D0574598
:1034A00013D3BAF1080F01D12E2C02D00620BDE8AB
:1034B000FC9F4FF0080007464FF00B0082464FEA92
:1034C00085604FEA10600546D9E7802C02DB45F0A5
:1034D00003000546812C01DB9F2C03DDE02C25DB5E
:1034E000FC2C23DC58460BF101018B4619F80080B7
:1034F000B8F1400F02DBB8F17E0F05DDB8F1800FA7
:1035000006DBB8F1FC0F03DCAAF10100B84201D8D8
:103510000620CCE7384607F101010F4634543846FF
:1035200007F101010F4606F800801EE0214627A0A2
:10353000FFF708FD08B10620B9E7412C05DB5A2C3E
:1035400003DC45F0020005460AE0612C08DB7A2C1A
:1035500006DC45F001000546A4F12000C0B2044697
:10356000384607F101010F46345488E700BF09EBE4
:103570000B0101980160202C02DC4FF0040001E0F7
:103580004FF00000C0B204460FB906208FE7307834
:10359000E52802D14FF005003070BAF1080F04D1D0
:1035A0004FEA85604FEA1060054605F003000128E8
:1035B00002D144F01000044605F00C00042802D1AA
:1035C00044F008000446F472002070E7222A2B2CF5
:1035D0003A3B3C3D3E3F5B5D7C7F00002DE9F04186
:1035E00004464FF00001204600F00BF9054615B1E6
:1035F0002846BDE8F08100BF2269114622681046C6
:1036000001F0CEFA054605B119E0666937781FB9B1
:103610004FF00400054612E0F07A10F0080F07D1D1
:10362000A06901460B22304601F080FA00B906E09D
:103630000021204600F006F80546002DDCD000BF32
:103640002846D6E72DE9F0410446884600BFE088C9
:1036500000F1010080B206460EB1206910B90420C5
:10366000BDE8F08116F00F0F7DD1206900F1010057
:103670002061E06828B920680089B04277DC042026
:10368000EEE720688078A0F1010010EA161F6ED1E5
:10369000E26811462268104600F022FE0546012D20
:1036A00001D80220DCE7681C01D10120D8E720689E
:1036B0008069A84252D8B8F1000F01D10420CFE7A9
:1036C000E268114622681046FFF74CFE05460DB928
:1036D0000720C5E7012D01D10220C1E7681C01D1F7
:1036E0000120BDE721680846002101F059FA08B120
:1036F0000120B5E72168303108464FF400720021FF
:1037000001F041FA216808462946FFF71BFE2168AF
:10371000C8624FF0000716E04FF001002168087101
:10372000216808464FF0000101F03AFA08B1012083
:1037300096E72068C06A00F101002168C86207F1BD
:103740000100C0B2074620688078B842E4DC2068F7
:10375000C06AA0EB07002168C86200BFE56021686D
:103760000846294600E002E0FFF7ECFD2061E68014
:10377000206800F1300006F00F0100EB411060619D
:103780004FF000006CE72DE9F04104464FF00001D6
:10379000204600F036F80546BDB900BF2269114643
:1037A0002268104601F0FCF9054605B10CE060699D
:1037B0000678E52E00D006B906E001212046FFF785
:1037C00041FF0546002DE9D000BFBDB92269114671
:1037D0002268104601F0E4F905467DB967692022A8
:1037E0000021384601F0CFF9A06901460B22384686
:1037F00001F0B7F94FF00100216808712846BDE8D3
:10380000F0812DE9F04104460E46E680A0680546A9
:10381000012D03D020688069A84202D80220BDE8AB
:10382000F08135B920680078032802D12068406A09
:10383000054665B9E56020680089B04201DC0220D8
:10384000EDE72068406A00EB1610206125E0206853
:1038500080784FEA001715E021680846294600F0F5
:103860003FFD0546681C01D10120D8E7022D03D396
:1038700020688069A84201D80220D0E7A6EB0700A3
:1038800080B20646BE42E7DAE5602168084629466E
:10389000FFF758FD00EB16102061206800F13000A2
:1038A00006F00F0100EB411060614FF00000B6E739
:1038B00010B504464FF000012046FFF7C4F810BDD4
:1038C00070B505464FF00000044615B144F0010004
:1038D0000446FEF7B1F810B144F00100044620465A
:1038E00070BD03464FF0000070472DE9F043ADF581
:1038F000017D81460C4616469846FDF725FE0128B7
:1039000004D003200DF5017DBDE8F08314F0030F12
:1039100022D04FF00000074614E03046711C0E46DE
:103920000246012301A94846FFF7DFFF074607B11A
:103930000FE04FF4007201A92046FCF749FC04F5A2
:10394000007004465FEA0800A8F10101C9B2884688
:10395000E3D100BF3846D5E743464FF40072314605
:103960002046FEF79BFB05467DB9FEF78BFC05461E
:1039700000BFFEF74FF807460128FAD0022F00D00B
:103980000DB10120BEE70020BCE70120BAE770B509
:1039900005464FF000000446FDF7D6FD012802D091
:1039A00044F002000446204670BD2DE9F043ADF519
:1039B000017D81460C4616469846FDF7C5FD012857
:1039C00004D003200DF5017DBDE8F08314F0030F52
:1039D00022D04FF00000074614E04FF40072214659
:1039E00001A8FCF7F5FB3046711C0E460246012388
:1039F00001A94846FFF7D9FF074607B109E004F5DA
:103A0000007004465FEA0800A8F10101C9B28846C7
:103A1000E3D100BF3846D5E743464FF40072314644
:103A20002046FEF7C3FC05467DB9FEF775FC05464A
:103A300000BFFDF7EFFF07460128FAD0022F00D0A4
:103A40000DB10120BEE70020BCE70120BAE710B5A8
:103A500004464FF001012046FEF7F5FF10BD70B59A
:103A60000446204600F0FCF9054615B94FF0000069
:103A70002060284670BD2DE9F04704460E46A28816
:103A800011462268104601F094FA8246BAF1000FFE
:103A900002D05046BDE8F087A07910F0800F01D029
:103AA0000220F7E7E068B04205D2A07910F0020FDB
:103AB00001D1E0680646D4F808904FF00008C4F839
:103AC0000880002E7ED0206880784FEA4027B9F128
:103AD000000F15D0701EB0FBF7F1A9F10100B0FB8B
:103AE000F7F081420CD3A9F10100A7F1010120EA0E
:103AF0000100A060A068A6EB0000064665691BE017
:103B00002569C5B9216808460021FFF72BFC054649
:103B1000012D06D1A07940F08000A0714FF0020085
:103B2000B8E7681C06D1A07940F08000A0714FF082
:103B30000100AFE725616561002D4ED02FE0A0792F
:103B400010F0020F08D0216808462946FFF70AFC4A
:103B500005463DB93E4624E021680846294600F066
:103B6000BFFB0546681C06D1A07940F08000A0711B
:103B70004FF001008EE7012D03D920688069A8422B
:103B800006D8A07940F08000A0714FF0020081E7D4
:103B90006561A0683844A060A6EB07000646BE42F7
:103BA000CDD800BFA0683044A060F005C00D14D08F
:103BB000216808462946FFF7C5FB8046B8F1000F8B
:103BC00008D100E009E0A07940F08000A0714FF03A
:103BD00002005FE708EB56208046A068C005C00DD4
:103BE0002FD0A06940452CD0A07910F0400F15D0FF
:103BF000A1690A46216849780846012304F1240195
:103C0000FFF7D3FE30B1A07940F08000A0714FF0F3
:103C100001003FE7A07920F04000A07121684978B9
:103C200008460123424604F12401FFF75EFE30B14D
:103C3000A07940F08000A0714FF001002AE7C4F89D
:103C40001880D4E90201884205D9A068E060A07913
:103C500040F02000A07150461CE700000246012AF7
:103C600001DB0B207047084850F8223013B14FF0A9
:103C70000000187011B14FF000000870024840F8C1
:103C800022100020EEE70000100000102DE9F7439D
:103C90008AB0054616464FF00000286006F01F0067
:103CA000064626F00100024603A90BA8FFF756F9C5
:103CB0000746CDF824D027B903A80B9900F063FA82
:103CC0000746089C1FB914B94FF00600074616F0C6
:103CD0001C0F60D05FB1042F03D103A8FFF753FD81
:103CE000074646F008000646089804460DE0E07ACC
:103CF00010F0110F03D04FF00700074605E016F053
:103D0000040F02D04FF008000746002F42D116F0F2
:103D1000080F3FD000F062FB804684F80E804FEA27
:103D20001820E0734FEA184121744FEA186060745C
:103D30003846E072207701466177A177E177A17E6E
:103D4000E07E41EA0020227D617D42EA012140EAD5
:103D500001493846A0760146E176207561754FF03D
:103D6000010003990871B9F1000F13D00398C06ADC
:103D7000804603990846494601F065F807464FB961
:103D8000A9F101000399C86003990846414600F073
:103D900007FF074612E08FB9E07A10F0100F03D04A
:103DA0004FF00400074609E016F0020F06D0E07A53
:103DB00010F0010F02D04FF0070007464FB916F080
:103DC000080F02D046F0200006460398C06AE8615A
:103DD0002C620FBBAE71A17EE07E41EA0020227D05
:103DE000617D42EA012140EA01402861E07F4FEA1B
:103DF0000061A07F41EA0041607F41EA0020217F0D
:103E000040EA0100E8604FF00000A860A861039854
:103E100028600398C088A88038460DB0BDE8F083BC
:103E200033B58BB00D464FF0000204A90BA8FFF785
:103E300095F804468CB901A80A9004A80B9900F0E3
:103E4000A2F904464CB9099820B1294604A800F00B
:103E5000C7FA02E04FF00600044620460DB030BD20
:103E60002DE9F0410446A28811462268104601F06F
:103E7000A0F80746002F5DD1A07910F0200F59D08F
:103E8000A07910F0400F11D0A1690A462168497845
:103E90000846012304F12401FFF787FD10B101203A
:103EA000BDE8F081A07920F04000A071E2691146E0
:103EB0002268104600F074FE0746002F3AD1256AAA
:103EC000E87A40F02000E872E0682877E0684FEA7E
:103ED00010206877E0684FEA1041A977E0684FEA60
:103EE0001060E8772069A87620694FEA1020E8760C
:103EF00020694FEA1040287520694FEA1060687504
:103F000000F06CFA0646AE754FEA1620E8754FEAE7
:103F1000164129764FEA16606876A07920F02000D5
:103F2000A0714FF00100216808712168084600F077
:103F3000C6FF07463846B3E72DE9FF4F83B0044676
:103F400015469B46049801904FF00000CBF8000006
:103F5000A28811462268104601F02BF802900298C0
:103F600018B1029807B0BDE8F08FA07910F0800F6B
:103F700001D00220F6E7A07910F0020F01D107204E
:103F8000F0E7E0682844E168884202D24FF0000080
:103F90000546E7E0A068C005C00D7ED120688078A6
:103FA000A0F10100A16800EA512000F0FF0ABAF177
:103FB000000F2FD1A06860B920698046B8F1000FCA
:103FC0000ED1216808460021FFF7CCF98046206118
:103FD00006E06269114622681046FFF7C3F9804681
:103FE000B8F1000F00D1C0E0B8F1010F06D1A079FF
:103FF00040F08000A0714FF00200B3E718F101001B
:1040000006D1A07940F08000A0714FF00100A9E72F
:10401000C4F81480A07910F0400F15D0A1690A46A9
:10402000216849780846012304F12401FFF7BDFC0B
:1040300030B1A07940F08000A0714FF0010091E70D
:10404000A07920F04000A0716269114622681046F4
:10405000FFF778F9064636B9A07940F08000A071E4
:104060004FF002007EE706EB0A0006464FEA5520B5
:104070008146B9F1000F35D00AEB09002168897833
:10408000884204D920688078A0EB0A008146216824
:104090004978084609F0FF0300E03CE03246019908
:1040A000FFF783FC30B1A07940F08000A0714FF0A1
:1040B000010057E7A069801B48450FD2A069801B0B
:1040C000019A02EB402001464FF4007204F12400F3
:1040D00000F047FDA07920F04000A0714FEA492090
:1040E000074631E0A069B04214D0D4E90201884209
:1040F00010D22168497808460123324604F1240190
:10410000FFF7F3FB30B1A07940F08000A0714FF0D1
:10411000010027E7A661A068C0F30800C0F50070A1
:104120000746AF4200D92F46A168C1F3080204F147
:104130002401114408463A46019900F012FDA07985
:1041400040F04000A07100BF019838440190A06881
:104150003844A060DBF800003844CBF80000A5EB41
:1041600007000546002D7FF415AF00BFD4E902011A
:10417000884201D9A068E060A07940F02000A071D9
:104180004FF00000EEE62DE9F34104460198007877
:104190002F2803D0019800785C2803D1019800F102
:1041A000010001904FF00000A060019800782028E5
:1041B00008D200212046FFF724FB06464FF00000FE
:1041C000606133E000BF01A92046FFF739F90646D8
:1041D00006B12AE02046FFF701FA0646A069C77A31
:1041E00056B1042E00D020E000BF17F0040F02D11A
:1041F0004FF00500064618E017F0040F00D014E059
:104200006569E87A10F0100F03D14FF005000646FB
:104210000BE0A97EE87E41EA00202A7D697D42EA22
:10422000012140EA0140A060CDE700BF3046BDE873
:10423000FC81000070B504460D460A2C15D11248C9
:1042400000680D2811D04FF00D000F49086000BF25
:1042500080210E48FEF704FC0028F9D00A480068C7
:1042600081B20A48FEF70CFD01E00748046000BF78
:1042700080210648FEF7F4FB0028F9D0A1B20348DC
:10428000FEF7FEFC204670BD3000001000440040E8
:1042900010B5002821D0114B001F0022196803E03F
:1042A000814203D80A4649680029F9D152B11368FE
:1042B000841A9C4204D1006818441060104602E041
:1042C000506000E0186039B102680B1A934203D1C4
:1042D0000B681A4402604968416010BD600000101C
:1042E0002DE9F04105460C46022C02D3A869A042F4
:1042F00002D80120BDE8F0812878012804D00228E6
:1043000032D0032866D145E0274607EB5700074621
:10431000286A00EB57200146284600F041FC00B116
:1043200058E0C7F3080105F1300010F8018007F1EB
:1043300001000746286A00EB57200146284600F096
:104340002FFC00B146E0C7F3080105F13000405CE6
:1043500048EA0020804614F0010F02D04FEA1810FE
:10436000C8E7C8F30B00C5E7286A00EB1420014634
:10437000284600F015FC00B12CE040F2FF1000EAE6
:10438000440105F1300001EB00063078717840EA15
:104390000120AFE7286A00EBD4100146284600F060
:1043A000FFFB00B116E040F2FF1000EA840105F1C6
:1043B000300001EB0006F0784FEA0060B17840EA87
:1043C0000140717840EA0120317840EA010020F094
:1043D00070408FE700BF4FF0FF308BE70020704741
:1043E000F0B505460B4603F109073A462F69002F41
:1043F00052D06869067B4FF0000111E0475C3C46F3
:10440000202C00D10EE0052C02D14FF0E5073C46F0
:1044100000BF147002F101073A4601F10107394665
:104420000829EBD300BF077A202F19D04FF02E07B1
:10443000177002F101073A464FF0080739460CE0C1
:10444000475C3C46202C00D109E000BF147002F10B
:1044500001073A4601F1010739460B29F0D300BFA5
:10446000C77A1F72C77F4FEA076C877F4CEA074CF9
:10447000477F4CEA072790F81CC047EA0C071F60EB
:1044800090F818C0477E4CEA07279F8090F816C026
:10449000C77D4CEA0727DF804FF000071770F0BD9B
:1044A00010B5042000F00CFB0446002020602046DC
:1044B00010BD0000ADF5D66DFCF77CFBFCF745FDAB
:1044C000FCF7D8F9FEF712FA4FF49650FCF764FCAB
:1044D0004FF49650FCF7D8FCFFF7E2FFFA4908606A
:1044E000FFF7DEFFF94908604FF40C7102A8FBF7F3
:1044F00088FE02A90020FFF7B1FB0446F448FFF74D
:10450000A6FA24B12146F3A0FEF7D6FB03E0F6A1FC
:10451000EF48FEF7B9FBEE48FFF7CAF9D2E1F648DB
:104520000078002875D0012802D0032872D139E123
:10453000E748FFF78CFAF148FFF789FA4FF480510A
:10454000EF48FCF71FFC4FF00100EE4908704FF4F4
:1045500009710DF25C40FBF754FE18210DF5D36094
:10456000FBF74FFE1322E8490DF25C40FFF78EFB8C
:10457000044624B12146E5A0FEF79EFB03E0EAA134
:10458000D348FEF781FB0DF5D361DF48FFF748FC08
:104590000446DDF898060146EBA0FEF78DFBDDF83A
:1045A000980601460DF25C40FFF765FA04465CB9D7
:1045B000EA48FBF731FE054601AB2A46E7490DF212
:1045C0005C40FFF7B9FC044624B12146E4A0FEF7A5
:1045D00073FB03E0EDA1BE48FEF756FB0DF25C4015
:1045E000FFF73DFA04464FF409718EA8FBF709FE68
:1045F00018210DF5D060FBF704FE1322EA498EA8BE
:10460000FFF744FB044634B12146E8A0FEF754FB13
:1046100005E036E055E1ECA1AD48FEF735FB0DF5C0
:10462000D061E148FFF7FCFB0446DDF88006014657
:10463000C5A0FEF741FBDDF8800601468EA8FFF716
:104640001AFA044654B9E848FBF7E6FD054601AB03
:104650002A46E5498EA8FFF76FFC044624B121469F
:10466000E2A0FEF729FB03E0EBA19948FEF70CFB63
:104670008EA8FFF7F4F904464FF003009E49087036
:104680001FE19348FFF714F99C48FFF711F94FF029
:1046900000009C4908704FF480519948FCF770FB6A
:1046A0004FF400419648FCF76DFB132296490DF23A
:1046B0005C40FFF7EBFA04460DF5D3619248FFF733
:1046C000AFFB0446DDF8980601460DF25C40FFF7AB
:1046D000D2F9044664BB4FF000000646D548016895
:1046E0007948006800F0BAFA05467948FFF7AFF953
:1046F0004FF00000064607E0A85D0146CEA0FEF799
:10470000DBFA06F101000646CA4800688642F3D388
:104710006F48FFF7CDF801ABC648294602680DF295
:104720005C40FFF709FC04462846FFF7B1FD04E0B2
:104730000DF25C40FFF793F9044613229A498EA8C4
:10474000FFF7A4FA04460DF5D0619748FFF768FB20
:104750000446DDF8800601468EA8FFF78CF9044672
:1047600094B9B64801685948006800F077FA0546E0
:1047700001ABB248294602688EA8FFF7DDFB04466C
:104780002846FFF785FD03E08EA8FFF768F9044689
:104790004FF400415A48FCF7F3FA4FF00200564933
:1047A00008708EE0A6480078002844D04FF0000042
:1047B000A34908704FF400415148FCF7E3FA132273
:1047C00051490DF25C40FFF761FA04460DF5D361E3
:1047D0004D48FFF725FB0446DDF8980601460DF22B
:1047E0005C40FFF748F90446BCB94FF47A7136488B
:1047F000006800F033FA054601AB4FF47A7229469F
:104800000DF25C40FFF798FB04468EA13048FEF79E
:104810003BFA2846FFF73CFD03E091A12C48FEF748
:1048200033FA0DF25C40FFF71AF904464FF40041E9
:104830003348FCF7A5FA92480078002840D04FF0A2
:1048400000008F4908704FF400412D48FCF79AFA98
:10485000132255498EA8FFF719FA04460DF5D061C9
:104860005148FFF7DDFA0446DDF8800601468EA8C0
:10487000FFF701F90446B4B94FF47A7113480068A0
:1048800000F0ECF9054601AB4FF47A7229468EA888
:10489000FFF752FB04467BA10D48FEF7F5F92846C9
:1048A000FFF7F6FC03E07EA10948FEF7EDF98EA8BC
:1048B000FFF7D5F804464FF400411148FCF760FAC1
:1048C00000BF00BF2BE60000580000105C00001085
:1048D00000440040726573203D20256420665F6DB2
:1048E0006F756E740A0000005344206D6F756E740E
:1048F00065640D0A000000004800001000480040F8
:10490000000C0240490000101C5000087265732022
:104910003D20256420665F6F70656E2055415254BE
:10492000322E5458540A000046696C652055415295
:1049300054322E54585420637265617465642F6F2D
:1049400070656E65640D0A00656E64206F66206692
:10495000696C65202564200A00000000DE4F000815
:10496000726573203D2025642050726F626CE86D83
:104970006520E963726974757265206669636869A8
:1049800065722055415254320A00000046696C6538
:104990002055415254322E54585420777269747401
:1049A000656E0D0A00000000265000087265732035
:1049B0003D20256420665F6F70656E20554152541E
:1049C000332E5458540A000046696C6520554152F4
:1049D00054332E54585420637265617465642F6F8C
:1049E00070656E65640D0A00FD4F000872657320E6
:1049F0003D2025642050726F626CE86D6520E9638C
:104A0000726974757265206669636869657220559C
:104A1000415254330A00000046696C6520554152EA
:104A200054332E545854207772697474656E0D0A8D
:104A3000000000005000001025630000540000102A
:104A40004B00001046696C652055415254322E547B
:104A50005854207772697474656E206F6B0D0A006C
:104A600046696C652055415254322E54585420707A
:104A7000726F626CE86D652077720D0A00000000AD
:104A80004C00001046696C652055415254332E5439
:104A90005854207772697474656E206F6B0D0A002C
:104AA00046696C652055415254332E545854207039
:104AB000726F626CE86D652077720D0A000000006D
:104AC000F0B50B30154D20F007010024144A0FE01B
:104AD00003688B420BD38B4205D95E1A4318476893
:104AE000C3E9006700E04368136002C004E0021DF0
:104AF00010680028ECD12046002802D1286808B1AF
:104B00000020F0BD064A07481060074A121A22F03A
:104B10000702C0E9002401202860D7E764000010E4
:104B2000600000100400002000000120F0B50346E2
:104B30001C460D464FF00006304600BF1600A2F19D
:104B400001073A460CD0277804F10106344695F85F
:104B500000C005F101063546A7EB0C063000EDD08C
:104B6000F0BD70B503460C4607E025781D7004F1D2
:104B700001052C4603F101052B461500A2F10106A3
:104B80003246F2D170BD30B5034603E0197003F12F
:104B9000010423461400A2F101052A46F6D130BDD6
:104BA0002DE9F04104460D46E06A0646AE4238D093
:104BB000207948B3617808460123324604F1300178
:104BC000FEF7F3FE10B10120BDE8F0814FF00000C8
:104BD0002071D4E907100844B04215D9E07807469F
:104BE0000FE0E06930440646617808464FF0010363
:104BF000324604F13001FEF7D8FEA7F10100C0B241
:104C00000746012FEDDC00BF5DB161780846012346
:104C10002A4604F13001FEF768FE08B10120D3E70F
:104C2000E5620020D0E7000070B50446002614B904
:104C300007A0FEF741F8206838B125682E7868682B
:104C400020602846FFF724FB00BF304670BD0000FF
:104C50004341434120212121000000002DE9F04182
:104C600007460C4600252046FFF72AFF064607B1F7
:104C700016B907A0FEF720F8002504E03846FFF734
:104C8000D3FF70556D1CA542F8D33046BDE8F081C6
:104C90004341434120212121000000002DE9F04142
:104CA00004460F460820FFF70BFF0546002604B117
:104CB00015B909A0FEF700F82F7000206860206881
:104CC00038B1266800E0766870680028FBD175600E
:104CD00000E02560BDE8F0814341434120212121CE
:104CE000000000002DE9F04705460E461746022E4B
:104CF00002D3A869B04202D84FF00208A0E0287899
:104D0000012804D0022849D003287ED15FE0B146B3
:104D100009EB59008146286A00EB592001462846D4
:104D2000FFF73EFF8046B8F1000F00D084E0C9F3E2
:104D3000080105F1300001EB000416F0010F04D06A
:104D4000F9B2207861F31F1000E0F8B2207009F189
:104D5000010081464FF001002871286A00EB5920BC
:104D600001462846FFF71CFF8046B8F1000F00D02F
:104D700062E0C9F3080105F130000844044616F06A
:104D8000010F02D0C7F3071006E0207800F0F00012
:104D9000C7F3032140EA010020704DE0286A00EBD0
:104DA000162001462846FFF7FBFE8046B8F1000FAB
:104DB00000D041E040F2FF1000EA460105F130006A
:104DC00001EB000427704FEA1720607034E0286A76
:104DD00000EBD61001462846FFF7E2FE8046B8F108
:104DE000000F00D028E040F2FF1000EA860105F134
:104DF000300001EB0004E0784FEA0060A17840EA5F
:104E00000140617840EA012000E012E0217840EAA8
:104E1000010000F0704040EA0700074627704FEAA3
:104E2000172060704FEA1740A0704FEA1760E070DB
:104E300002E04FF0020800BF00BF4FF001002871F0
:104E40004046BDE8F0872DE9F04104460E46022EAB
:104E500002D3A069B04202D84FF002072CE04FF015
:104E6000000725E031462046FFF73AFA054605B926
:104E700021E0012D03D14FF0020007461BE0681C22
:104E800003D14FF00100074615E0002231462046CD
:104E9000FFF728FF074607B10DE02069401C06D048
:104EA000206900F1010020614FF0010060712E4681
:104EB000A069B042D6D800BF3846BDE8F08170B5D1
:104EC00004464FF000012046FFF76AFE0546002D1C
:104ED0006DD12078032860D1607900285DD0284604
:104EE000E0624FF40072014604F13000FFF74BFE20
:104EF0004FF0550184F82E124FF0AA0184F82F12BA
:104F00004FF052014FF03000015584F831104FF04E
:104F1000610184F832104FF0410184F833104FF0F2
:104F2000720184F8141284F815124FF0410184F8CC
:104F300016124FF0610184F81712206984F81802E4
:104F400020694FEA102184F8191220694FEA1041B4
:104F500084F81A1220694FEA106184F81B12E06885
:104F600084F81C02E0684FEA102184F81D12E06802
:104F70004FEA104184F81E12E0684FEA106184F88D
:104F80001F1261690A46617808464FF0010304F177
:104F90003001FEF70AFD284660716178084600225C
:104FA0001146FEF79EFC10B14FF001000546284661
:104FB00070BD70B504460D4624B1207810B1E0886C
:104FC000A84201D0092070BD61780846FEF7DFFCD9
:104FD00010F0010F01D00320F5E70020F3E70D0AE0
:104FE0000D0A4E6F7576656C6C6520636170747523
:104FF00072652055415254320D0A0D0A000D0A0DFA
:105000000A4E6F7576656C6C65206361707475729D
:10501000652055415254330D0A0D0A005541525432
:10502000322E5458540055415254332E5458540083
:10503000605000080000001068000000D82C000834
:10504000605000080000002000100100E82C00085B
:10505000C850000868000010CC000000E82C0008D0
:10506000000000000102030401020304060708090E
:105070000000000000000000000000000000000030
:105080000000000000000000000000000000000020
:105090000000000000000000000000000000000010
:1050A00001000000010000000200000000000000FC
:1050B00000000000000000000000000000000000F0
:0850C0000000000000000000E8
:040000050800018965
:00000001FF
