:020000040800F2
:10000000001001209D010008690D0008ED0B00089B
:10001000650D000879020008952600080000000020
:100020000000000000000000000000000D2000089B
:100030008D07000800000000210E00087121000853
:10004000C3010008C3010008C3010008C301000880
:10005000C3010008C301000891070008C30100089C
:10006000C3010008C3010008C3010008C301000860
:10007000C3010008C3010008C3010008C301000850
:10008000C3010008C3010008C3010008C301000840
:10009000C3010008C3010008C3010008C301000830
:1000A000C3010008C3010008C3010008C301000820
:1000B000D1210008C3010008C3010008C3010008E2
:1000C000C3010008C3010008C3010008C301000800
:1000D000C3010008C3010008AD230008292400085B
:1000E000C3010008C3010008C3010008C3010008E0
:1000F000C3010008C3010008C3010008C3010008D0
:10010000C301000885110008C3010008C3010008ED
:10011000C3010008C3010008C3010008C3010008AF
:10012000C3010008C3010008C3010008C30100089F
:10013000C3010008C3010008C3010008C30100088F
:10014000C3010008C3010008C3010008C30100087F
:10015000C3010008C3010008C3010008C30100086F
:10016000C3010008C3010008C3010008C30100085F
:10017000C3010008C3010008C3010008C30100084F
:10018000C3010008C3010008DFF80CD000F062F8DA
:1001900000480047ED3B00080010012009480168B5
:1001A00041F470010160084880470848004700009A
:1001B000FEE7FEE7FEE7FEE7FEE7FEE7FEE7FEE717
:1001C000FEE7FEE788ED00E07521000889010008E0
:1001D00040EA01039B0703D009E008C9121F08C0C9
:1001E000042AFAD203E011F8013B00F8013B521E49
:1001F000F9D27047D2B201E000F8012B491EFBD2C0
:1002000070470022F6E710B513460A460446194621
:10021000FFF7F0FF204610BD421C10F8011B00291B
:10022000FBD1801A704730B50B46014600202022D2
:10023000012409E021FA02F59D4205D303FA02F5F3
:10024000491B04FA02F52844151EA2F10102F1DC53
:1002500030BD0000064C074D06E0E06840F00103A9
:1002600094E8070098471034AC42F6D3FFF790FFAC
:10027000D44600080447000800BFFEE770B500251B
:100280004FF4803400E0641E24B1802000F04EFF63
:100290000028F8D014B90325284670BD40F2FF505D
:1002A00000F000FF2846F8E72DE9F0410646002758
:1002B0004748056801E04648056815F0450FFAD043
:1002C00015F0040F06D00327042000F0EBFE38469B
:1002D000BDE8F08115F0010F05D00127012000F0E5
:1002E000E1FE3846F4E700F01BFFB04202D01027D1
:1002F0003846EDE740F2FF5000F0D4FE002000F059
:1003000035FF04463348044201D13846E0E714F093
:10031000004F01D01C20DBE714F0804F01D00920F2
:10032000D6E714F0005F01D00A20D1E714F0805F17
:1003300001D00B20CCE714F0006F01D00C20C7E7F0
:1003400014F0806F01D00D20C2E714F0807F01D03F
:100350000E20BDE714F4000F01D00F20B8E714F40D
:10036000800F01D01020B3E714F4001F01D011203A
:10037000AEE714F4801F01D01220A9E714F4002F77
:1003800001D01320A4E714F4802F01D014209FE79C
:1003900014F4003F01D015209AE714F4803F01D0F7
:1003A000162095E714F4004F01D0172090E714F4BD
:1003B000804F01D018208BE714F4005F01D0192082
:1003C00086E714F0080F01D01A2081E738467FE74E
:1003D000342C014008E0FFFD70B500250F4804688B
:1003E00001E00E48046814F0450FFAD014F0040F31
:1003F00005D00325042000F055FE284670BD14F0FA
:10040000010F05D00125012000F04CFE2846F5E73C
:1004100040F2FF5000F046FE2846EFE7342C014042
:1004200070B500250B48046801E00A48046814F020
:10043000450FFAD014F0040F05D00325042000F076
:1004400031FE284670BD40F2FF5000F02BFE2846DA
:10045000F8E70000342C01402DE9F04106460F4634
:100460004FF000082248056801E02148056815F0B2
:10047000450FFAD015F0040F07D04FF00308042001
:1004800000F010FE4046BDE8F08115F0010F06D0E7
:100490004FF00108012000F005FE4046F3E700F0B0
:1004A0003FFEB04203D04FF010084046EBE740F269
:1004B000FF5000F0F7FD002000F058FE044614F451
:1004C000604F03D1200C38804046DCE714F4005F15
:1004D00001D01320D7E714F4804F01D01020D2E7C9
:1004E00014F4004F01D00F20CDE74046CBE70000C9
:1004F000342C014070B500264FF480350F48046855
:1005000002E06D1E0D48046814F0450F01D1002D66
:10051000F7D115B114F0040F05D00326042000F024
:10052000C1FD304670BD14F0400F05D000264020BC
:1005300000F0B8FD3046F5E73046F3E7342C0140D3
:100540000246094B9A4201D2084801E00648103899
:1005500011F0005F03D0064B0B40C36002E0044B78
:100560000B4083607047000010640240006002404E
:100570007D0F7D0F21B1026842F00102026003E0AD
:10058000026822F00102026070470000016821F059
:10059000010101600021016041608160C160016171
:1005A000212141614A49884204D13D21484A103AFB
:1005B00091608CE046491831884205D14FF474614E
:1005C000434A103A916082E041493031884205D176
:1005D0004FF474113E4A103A916078E03C4948313A
:1005E000884205D14FF07461394A103A91606EE04B
:1005F00037496031884204D13649354A103AD160D2
:1006000065E033497831884204D13349304A103AA1
:10061000D1605CE02E499031884204D12F492C4AA8
:10062000103AD16053E02A49A831884205D14FF0F1
:100630003D51274A103AD16049E02949884204D106
:100640003D21274A083A116041E025491831884286
:1006500005D14FF47461224A083A116037E020490D
:100660003031884205D14FF474111D4A083A1160A7
:100670002DE01B494831884205D14FF07461184A7A
:10068000083A116023E016496031884204D11149CB
:10069000134A121F11601AE011497831884204D1BF
:1006A0000D490F4A121F116011E00D499031884227
:1006B00004D10A490A4A121F116008E00849A8310A
:1006C000884204D14FF03D51054A121F1160704716
:1006D000106002403D000020400F002000003D203F
:1006E0001064024021B1026842F02002026003E07F
:1006F000026822F020020260704710B511F0800FEE
:1007000009D022B1436943F08003436103E04369A8
:1007100023F08003436180290BD02AB1036801F0E4
:100720001E042343036004E0036801F01E04A34396
:10073000036010BD10B500220268134B1A40CC684C
:100740000B6823434C6923438C692343CC692343BF
:100750000C6A23434C6A23438C6A23434C6B234328
:100760008C6B23431A430260426922F00702D1E9ED
:100770000B3423431A4342610B6943604B68836027
:100780008B68C36010BD00003F801CF07047000004
:100790001CB5012000F054F8D0B1012000900020D9
:1007A0008DF80600684600F05FF80A480078401CA3
:1007B00008490870087800EBD0714910A0EB41019E
:1007C000044A117001200449087000F033F800BF9A
:1007D0001CBD00004C0000104E0000100EB50121A1
:1007E000880300F03FFB0021084601F011FC0120C6
:1007F000019000208DF808000C208DF809000120E0
:100800008DF80A0001A800F02FF806208DF80000EE
:1008100005208DF801008DF8020001208DF80300FD
:10082000684600F0B7FA0EBD014908607047000045
:10083000143C01400149086070470000143C01402D
:10084000014600200022074B1B6803EA0102054B0A
:1008500014331B680B4202D00AB1012000E00020D3
:1008600070470000003C0140002123498279002AA2
:100870003AD00A46126803689A430B461A600A1D6A
:10088000126803689A430B1D1A60027911440A68C2
:1008900003681A430A60184A0832126803689A43C8
:1008A000154B08331A601A1D126803689A43124BDD
:1008B0000C331A604279102A0ED11A1F126803688D
:1008C0001A430D4B08331A601A1D126803681A4345
:1008D000094B0C331A600DE00749427911440A684C
:1008E00003681A430A6005E0027911440A68036844
:1008F0009A430A6070470000003C01402DE9FC412A
:1009000007460D4600260024002000900190082094
:100910005A49086010204860402088600020C86064
:100920004FF480600861084600F05EFC1020FFF77D
:10093000BBFC044614B12046BDE8FC815048008849
:1009400000044E490860372048604020886000203D
:10095000C8604FF480600861084600F045FC37200D
:10096000FFF7A2FC04460CB12046E5E74FF0FF304C
:100970004449086008204860302088600220C86030
:100980000020086101204861084600F0A3FB002018
:100990003A49086033204860402088600020C860E1
:1009A0004FF480600861084600F01EFC3320FFF71A
:1009B0007BFC04460CB12046BEE709E04FF4001072
:1009C00000F0B4FB20B100F009FC4DF82600761CC5
:1009D0002D48006840F22A610842EFD0082000F05C
:1009E000A5FB28B1082000F05DFB04242046A3E706
:1009F000022000F09BFB28B1022000F053FB0224F0
:100A0000204699E7202000F091FB28B1202000F03B
:100A100049FB062420468FE74FF4007000F086FB68
:100A200030B14FF4007000F03DFB0724204683E70F
:100A300040F2FF5000F036FB00980006009901F4E8
:100A40007F4140EA0120009901F47F0140EA112032
:100A5000009940EA1160686001980006019901F46C
:100A60007F4140EA0120019901F47F0140EA112011
:100A7000019940EA1160286020465DE710010010EE
:100A80001C00001024010010342C01401FB501216E
:100A9000082000F0C7F94FF47040029001208DF853
:100AA0000C0000208DF80E0003208DF80D000020B2
:100AB0008DF80F0002A90D4800F01CF8012108462E
:100AC00000F0B0F90120009000208DF80400012012
:100AD0008DF8060003208DF8050000208DF8070032
:100AE0006946034800F006F81FBD0000000C0240F4
:100AF00000000240F0B50A4600210023002400BF98
:100B00003DE0012505FA01F3156805EA03049C425E
:100B100034D105684F000326BE40B5430560157902
:100B20004E00B5400668354305601579012D02D0A9
:100B30001579022D16D185684F000326BE40B543B6
:100B4000856055794E00B5408668354385604568B7
:100B500001268E40B5434560456896798E40B6B211
:100B600035434560C5684F000326BE40B543C560A8
:100B7000D5794E00B540C6683543C560491C10297B
:100B8000BFD3F0BDF0B5002300244D07ED0E02FAEF
:100B900005F3CE1000F1200555F826504E07F70E4C
:100BA0000F26BE40B543CF1000F1200646F827506F
:100BB000CE1000F1200555F8265045EA0304CE106A
:100BC00000F1200545F82640F0BD024600201369DB
:100BD0000B4201D0012000E00020704741837047A4
:100BE0000183704742694A404261704700BFFEE797
:100BF00010B588B004460121084600F013F9012120
:100C0000480400F01FF9072202212B48FFF7BAFF22
:100C1000072203212848FFF7B5FF04200690022091
:100C20008DF81C0000208DF81F008DF81E0002209A
:100C30008DF81D0006A92048FFF75CFF08200690EC
:100C400002208DF81C0000208DF81F0001208DF877
:100C50001E0003208DF81D0006A91748FFF74AFF64
:100C600002940020ADF80C00ADF80E00ADF81000B5
:100C7000ADF814000C20ADF8120002A90F4801F0E5
:100C800089FC012240F225510C4801F05DFC262030
:100C90008DF8040001208DF8050000208DF8060075
:100CA00001208DF8070001A800F074F80121034825
:100CB00001F007FC08B010BD0000024000440040F5
:100CC00010B588B004460121082000F0ABF80121DE
:100CD000880400F0B7F8072209212048FFF752FFE7
:100CE0004FF40070069002208DF81C0000208DF853
:100CF0001F0001208DF81E0003208DF81D0006A99D
:100D00001648FFF7F7FE02940020ADF80C00ADF88E
:100D10000E00ADF81000ADF814000C20ADF8120074
:100D200002A90F4801F036FC012240F225510C487F
:100D300001F00AFC27208DF8040002208DF8050040
:100D400001208DF806008DF8070001A800F022F8B8
:100D50000121034801F0B5FB08B010BD000C0240B2
:100D60000048004000BFFEE7704708B54FF4C06080
:100D700000F04CF831208DF8000000208DF80100C3
:100D80008DF8020001208DF80300684600F002F89B
:100D900008BD000070B5002100230F22C47824B3E1
:100DA000174C246804F4E064C4F5E064C4F307213C
:100DB000C1F10404E3B20A4144789C40E1B2847872
:100DC000144021430C07210E0E4C05786155047820
:100DD00004F01F050124AC4005786D114FF0E026AA
:100DE00006EB8505C5F8004109E0047804F01F040E
:100DF0000125A540044C0678761144F8265070BDB4
:100E00000CED00E000E400E080E100E00249014375
:100E1000024A1160704700000000FA050CED00E086
:100E20007047000029B1064A12680243044B1A6059
:100E300004E0034A12688243014B1A6070470000C5
:100E40003038024029B1064A12680243044B1A6046
:100E500004E0034A12688243014B1A6070470000A5
:100E60004038024029B1064A12680243044B1A6016
:100E700004E0034A12688243014B1A607047000085
:100E80004438024029B1064A12680243044B1A60F2
:100E900004E0034A12688243014B1A607047000065
:100EA00024380240F0B5002100220024022500264B
:100EB0000223324F3F6807F00C0121B1042905D00D
:100EC000082937D105E02E4F076036E02D4F076027
:100ED00033E02A4F3F1F3F68C7F38056274F3F1F1D
:100EE0003F6807F03F036EB1264FB7FBF3F7DFF81B
:100EF0008CC0ACF1040CDCF800C0CCF3881C07FB00
:100F00000CF40CE01E4FB7FBF3F7DFF870C0ACF148
:100F1000040CDCF800C0CCF3881C07FB0CF4174F62
:100F20003F1F3F68C7F301477F1C7D00B4FBF5F707
:100F3000076002E0124F076000BF00BF0F4F3F681D
:100F400007F0F0010909104F7A5C0768D740476045
:100F50000A4F3F6807F4E051890A0B4F7A5C4768F3
:100F6000D7408760054F3F6807F46041490B064F43
:100F70007A5C4768D740C760F0BD0000083802407F
:100F80000024F40000127A00000000107CB5054631
:100F9000002400200090019000F0E8F810F0007F9D
:100FA00002D00E2420467CBD3C49098888B269469F
:100FB000FFF7A4FC04460CB12046F4E7012D35D11F
:100FC000019810F4802F2ED0344800880004344952
:100FD000086037204860402088600020C860A80270
:100FE0000861084600F000F93720FFF75DF9044674
:100FF0000CB12046D7E70220294908600620486046
:10100000402088600020C8604FF480600861084676
:1010100000F0EAF80620FFF747F904460CB1204635
:10102000C1E72046BFE725242046BCE7019810F41D
:10103000803F2FD0194800880004194908603720E4
:101040004860402088600020C8604FF480600861DC
:10105000084600F0C9F83720FFF726F904460CB11E
:101060002046A0E700200E49086006204860402086
:1010700088600020C8604FF480600861084600F076
:10108000B3F80620FFF710F904460CB120468AE7B2
:10109000204688E72524204685E700001C00001034
:1010A000100100100149086070470000382C014011
:1010B0000149086070470000382C01400149086070
:1010C00070470000A0802542014908607047000079
:1010D0008C85254200210B4B02681A601B1D42685B
:1010E0001A601A1D116821F0F701D0E902231A4392
:1010F00003691A4343691A431143024A08321160D3
:1011000070470000242C014010B50121C802FFF7F0
:10111000B9FE00214FF40060FFF7B4FE10BD0000DF
:1011200001480068C0B27047102C01400146002001
:10113000034A12680A4201D0012000E000207047F3
:10114000342C014001460020034A12680A4201D0B3
:10115000012000E000207047342C01400248006864
:1011600000F0030070470000002C014008B5014664
:10117000002000900248084400900098006808BDD4
:10118000142C014010B500F0F7FC10BD29B1064A3F
:1011900012680243044B1A6004E0034A1268824357
:1011A000014B1A60704700003C2C014000210A4AA4
:1011B000116847F6FF629143027D83681A434368D2
:1011C0001A43C3681A4303681A4303691A43114355
:1011D000014A116070470000042C0140014800687A
:1011E00070470000802C01400021094B02681A6002
:1011F0001A1D11686FF30A01D0E901231A43C3686D
:101200001A4303691A431143014A121D11607047C2
:10121000082C01400149086070470000002C014083
:1012200008B50120009004210448FFF7CEFC08B166
:10123000002000909DF8000008BD0000000802405A
:1012400070B50446002521480068032802D12725EF
:10125000284670BD1D48006838B11C480068012848
:1012600003D01A48006802282ED1B4F5805F02D15D
:1012700027252846EDE7B4F5006F14D10120FFF7CC
:1012800085FE054605BB022011490875002008604F
:10129000486088604FF40060C8600020086108461C
:1012A000FFF784FF10E00020FFF770FE05465DB9F0
:1012B0000220074908750020086048608860C860FF
:1012C00008610846FFF772FF2846C2E718000010C1
:1012D000F8000010F0B5014600200022C24B1B7838
:1012E00081F85630C14B1B88A1F85430C04B1B68A5
:1012F0001A0E93090B70C2F383034B7002F00303C1
:101300008B70BB4B1B68C3F30742CA70B84B1B887A
:10131000C3F307220A71B64B1A784A715B681A0E3A
:101320001301CB80B24B5B68C3F30742CB8843EA1F
:101330001213CB8002F00F030B72AD4B9B88C3F3EB
:101340000722D3094B72C2F380138B72C2F340138E
:10135000CB72C2F300130B7300234B73A24B1B68B9
:101360001BB1A14B1B68012B4FD193071B0D0B61C8
:101370009F4B1A790B6943EA82030B619C4B9B6874
:101380001A0E0B6943EA92130B61C2F3C2030B7589
:1013900002F007034B75964B9B68C3F30742530952
:1013A0008B75C2F38203CB7593075B0F0B76904B63
:1013B0001B89C3F307220B7E43EAD2130B760B691A
:1013C0005B1C0024C1E912340B7ED1E912469B1C40
:1013D000012505FA03F3DD17A4FB037C06FB03C319
:1013E00004FB0533C1E912730C7A0123A3400B659A
:1013F0000027D1E912460B6DA4FB035C06FB03C377
:1014000004FB0733C1E9125325E0774B1B68022B1D
:1014100021D1774B1A7993069B0A0B61744B9B6819
:101420001A0E0B6943EA02230B61714B9B68C3F3ED
:1014300007420B6913430B616D4B1B89C3F30722F2
:101440000B695B1C4FF40024A3FB0434C1E9123484
:101450004FF400730B65C2F3801301F8193F930634
:101460005B0E4B70624B1A7A4B7843EAD2134B7087
:1014700002F07F038B705E4BDB681A0ED309CB70D2
:10148000C2F341130B71C2F382034B7193071B0F1D
:101490008B71574BDB68C3F307428B7943EA921396
:1014A0008B71C2F34013CB7100230B7202F0010366
:1014B0004B724F4B9B89C3F30722D3098B72C2F344
:1014C0008013CB72C2F340130B73C2F300134B7340
:1014D000C2F381038B7302F00303CB73444B1A7B7B
:1014E00053080B7401234B74424B1B681A0ECA74C9
:1014F000A1F119013F4B1B68C3F307424FEA0224D5
:10150000CC853C4B1B88C3F30722CB8D43EA0203F7
:10151000CB85384B1A784FEA02640C635B684FEA5C
:1015200013620B6B43EA02440C63324B5B68C3F3F8
:1015300007420B6B43EA02240C632E4B9B88C3F3D8
:1015400007220B6B43EA02030B632A4B1A794FF015
:1015500034035A54274B9B684FEA13624FF035030C
:101560005A54244B9B68C3F307424FEA02648C63CE
:10157000204B1B89C3F307228B6B43EA02448C6325
:101580001C4B1A7A8B6B43EA02248C63194BDB6881
:101590004FEA13628B6B43EA02038B63154BDB68E4
:1015A000C3F307424FF03C035B5C43EA12144FF075
:1015B0003C035C544FEA02734FEA1354CC870D4B43
:1015C0009B89C3F30722CB8F43EA0203CB87094BE6
:1015D0001A7B4FEA52044FF040035C544FF0010471
:1015E0004FF041035C54F0BD180000101C000010C7
:1015F000700000108000001008B500200090FFF778
:101600000FFE012809D1684600F09CFB08B1FF20BD
:1016100008BD0098C0F34320FAE7FF20F8E710B5B3
:101620000424FFF7E9FF0446042C01D1002010BD7B
:10163000FF2C01D10220FAE70120F8E708B50020CD
:10164000009000F069F9FFF75FFD00F0C5F9009028
:101650009DF8000010B19DF8000008BD00F030F8C2
:1016600000909DF8000010B19DF80000F5E7022001
:10167000114908750020086048608860C8600861EA
:101680000846FFF793FD0D48FFF724FE00909DF8F4
:10169000000030B90949B1F85410080400F038FBD3
:1016A00000909DF8000020B94FF40060FFF7C8FDDE
:1016B00000909DF80000D0E7F8000010A000001096
:1016C00038B5002401200090FFF748FD10B925240B
:1016D000204638BD44480068042828D000204349EB
:1016E000086002204860C02088600020C8604FF475
:1016F000806008610846FFF777FDFEF76DFE04463F
:101700000CB12046E5E70020FFF730FD38490860BE
:101710000420FFF72BFD364948600820FFF726FD1F
:10172000334988600C20FFF721FD3149C8602E48FD
:10173000006858B12C480068012807D02A48006882
:10174000062803D028480068022816D1002027491F
:10175000086003204860402088600020C8604FF483
:10176000806008610846FFF73FFD69460320FEF7E9
:1017700073FE04460CB12046ABE71B480068042802
:101780002ED0BDF800001B490860BDF80000000421
:101790001649086009204860C02088600020C860A1
:1017A0004FF4806008610846FFF71EFDFEF714FE47
:1017B00004460CB120468CE70020FFF7D7FC0E4909
:1017C00008600420FFF7D2FC0B4948600820FFF7AF
:1017D000CDFC094988600C20FFF7C8FC0649C860A9
:1017E0000024204675E700001800001010010010CA
:1017F000800000101C0000107000001030B58FB089
:1018000004460D464FF0FA511D48FEF799FE00219F
:101810001B48FEF7AFFE1A48FEF7B8FE4FF0006017
:1018200000901848019002940020039004900590C5
:101830004FF48060069080000790800008900020A0
:1018400009904FF440300A9004200B9003200C9034
:101850004FF400000D9080100E9069460848FEF786
:1018600069FF012210210648FEF747FF20210448A6
:10187000FEF738FF01210248FEF77CFE0FB030BDB5
:1018800058640240802C014030B58FB004460D46AC
:101890004FF0FA511E48FEF753FE00211C48FEF798
:1018A00069FE1B48FEF772FE4FF000600090194879
:1018B00001900294402003900020049005904FF482
:1018C00080600690800007908000089000200990BA
:1018D0004FF440300A9004200B9003200C904FF4FA
:1018E00000000D9080100E9069460948FEF722FF17
:1018F000012210210648FEF700FF20210448FEF7D0
:10190000F1FE01210248FEF735FE0FB030BD0000A8
:1019100058640240802C01401CB501210C20FFF7C7
:1019200081FA0C2208212A48FFF72CF90C22092100
:101930002748FFF727F90C220A212548FFF722F94B
:101940000C220B212248FFF71DF90C2211462048DA
:10195000FFF718F90C2202211E48FFF713F94FF484
:101960007060009001208DF8050002208DF80400C1
:1019700000208DF8060001208DF807006946144804
:10198000FFF7B8F80420009069461248FFF7B2F854
:101990004FF48050009000208DF8070069460C48F5
:1019A000FFF7A8F80420009000208DF80400012023
:1019B0008DF8070069460648FFF79CF80121C80228
:1019C000FFF750FA01218805FFF72CFA1CBD000033
:1019D00000080240000C0240F8B5002000900025ED
:1019E00000240026002776205F4908750020086043
:1019F00048608860C86008610846FFF7D7FB03208D
:101A0000FFF708FC0120FFF759FB00205749086049
:101A100048608860C8604FF4806008610846FFF73E
:101A2000E3FBFEF72BFC00909DF8000010B19DF841
:101A30000000F8BD4FF4D5704C490860082048609C
:101A4000402088600020C8604FF48060086108462C
:101A5000FFF7CAFBFEF74EFD00909DF8000020B98D
:101A6000012043490860870712E000203F490860D1
:101A700037204860402088600020C8604FF48060B4
:101A800008610846FFF7B0FB3720FEF70DFC009019
:101A900000203649086037204860402088600020D8
:101AA000C8604FF4806008610846FFF79DFB37204F
:101AB000FEF7FAFB00909DF80000002851D13BE0B2
:101AC00000202A49086037204860402088600020B4
:101AD000C8604FF4806008610846FFF785FB372037
:101AE000FEF7E2FB00909DF8000010B19DF80000A9
:101AF0009FE7204838431D4908602920486040205E
:101B000088600020C8604FF4806008610846FFF7D5
:101B10006BFBFEF785FC00909DF8000010B19DF86E
:101B2000000086E70020FFF721FB0546012080EA40
:101B3000D57080F00106641C1EB94FF6FF70844218
:101B4000BED34FF6FF70844204D31B2000909DF853
:101B500000006EE705F08040050002D00220044935
:101B600008609DF8000064E7F80000101001001004
:101B7000180000100000108010B54FF48070FFF7BF
:101B8000E1FA50B10020254908704FF48070FFF74A
:101B90008FFA01202249086037E00220FFF7D2FACD
:101BA00030B10220FFF784FA02201C4908702CE0B3
:101BB0000820FFF7C7FA30B10820FFF779FA0420B0
:101BC0001649087021E02020FFF7BCFA30B1202030
:101BD000FFF76EFA06201149087016E01020FFF793
:101BE000B1FA30B11020FFF763FA05200B490870F5
:101BF0000BE04FF40070FFF7A5FA30B14FF400701E
:101C0000FFF756FA07200549087000214CF23A30D8
:101C1000FFF7BCFA0148007810BD00002400001056
:101C2000280000102DE9F04180460D4614461E465E
:101C3000002700202F4908702F49086001202F49F4
:101C4000086000202E4908602E480068022801D153
:101C5000040200E065432C48046010202A494860D3
:101C6000402088600020C8604FF48060086108460A
:101C7000FFF7BAFA1020FEF717FB074617B13846F0
:101C8000BDE8F0814FF0FF302049086006FB04F00A
:101C90004860902088600220C86000200861012010
:101CA00048610846FFF716FA1748056012201649E2
:101CB0004860402088600020C8604FF48060086160
:101CC0000846FFF791FA1220FEF7EEFA07460FB129
:101CD0003846D5E7012140F22A30FFF757FA0120B4
:101CE000FFF7F2F906FB04F14046FFF787FD38469F
:101CF000C6E700002400001028000010200000109B
:101D00002C2C0140180000101001001024010010BC
:101D100070B5044600250A48046007200849486059
:101D2000402088600020C8604FF480600861084649
:101D3000FFF75AFA0720FEF7B7FA0546284670BDA6
:101D40001001001070B50446002514B92625284658
:101D500070BD0F48008800040E4908600D204860DF
:101D6000402088600020C8604FF480600861084609
:101D7000FFF73AFA0D20FEF797FA05460DB128460F
:101D8000E6E70020FFF7F2F920602846E0E70000D0
:101D90001C0000101001001010B5002400200A499A
:101DA00008600C204860402088600020C8604FF424
:101DB000806008610846FFF717FA0C20FEF774FAF6
:101DC0000446204610BD00001001001070B500252B
:101DD0006C1E00E0641E1748006838B91648006899
:101DE00020B91648007808B9002CF3D10020114919
:101DF0000860441E00E0641E1148006810F4005F93
:101E000001D0002CF7D10F480068012802D1FFF75C
:101E1000C3FF05460CB905B9042540F2FF50FFF792
:101E200041F90648007810B10448007870BD284692
:101E3000FCE700002C000010280000102400001017
:101E4000342C01402000001070B500256C1E00E00D
:101E5000641E1748006838B91648006820B916484B
:101E6000007808B9002CF3D1002011490860441E05
:101E700000E0641E1148006810F4805F01D0002C5F
:101E8000F7D10F480068012802D1FFF785FF05460A
:101E90000CB905B9042540F2FF50FFF703F90648D5
:101EA000007810B10448007870BD2846FCE70000B7
:101EB0002C0000102800001024000010342C0140D9
:101EC000200000102DE9F04180460F4614461E46C2
:101ED0000025002045490870454908600120454912
:101EE000086000204449086044480068022801D185
:101EF000040200E067434248046010204049486003
:101F0000402088600020C8604FF480600861084667
:101F1000FFF76AF91020FEF7C7F9054615B1284604
:101F2000BDE8F08137480088000435490860372053
:101F30004860402088600020C8604FF480600861DD
:101F40000846FFF751F93720FEF7AEF905460DB107
:101F50002846E5E72A4806601720294948604020BE
:101F600088600020C8604FF4806008610846FFF771
:101F70003BF91720FEF798F905460DB12846CFE743
:101F80001F48076019201E494860402088600020D3
:101F9000C8604FF4806008610846FFF725F91920F2
:101FA000FEF782F905460DB12846B9E74FF0FF303C
:101FB0001549086006FB04F0486090208860002006
:101FC000C8600861012048610846FFF783F80121D5
:101FD00040F22A30FFF7DAF80120FFF775F806FB28
:101FE00004F14046FFF750FC284699E72400001012
:101FF00028000010200000102C2C014018000010B8
:10200000100100101C000010240100107047000097
:1020100030B500228B071C0F0F2303FA04F20B4B81
:102020008C1053F824309343084C8D1044F825301D
:1020300023468C1053F824308C07240F00FA04F444
:102040002343024C8D1044F8253030BD0838014040
:102050000CB50020019000904048006840F48030AA
:102060003E49086000BF3D48006800F40030009021
:102070000198401C0190009818B90198B0F5A06F24
:10208000F1D13648006810F4003F02D001200090E2
:1020900001E0002000900098012845D12F484030F1
:1020A000006840F080502D49403108602C4800689D
:1020B00040F440402A490860284808300068274911
:1020C000083108600846006840F40040086008468F
:1020D000006840F4A05008602248091F0860081FEB
:1020E000006840F08070091F086000BF1B4800684E
:1020F00010F0007FFAD040F205601B4908601748D5
:102100000830006820F003001449083108600846D0
:10211000006840F00200086000BF10480830006806
:1021200000F00C000828F8D10C480830006820F4B2
:1021300000000A49083108600C48084984310860E9
:102140000648006840F080600449086000BF03480A
:10215000006810F0006FFAD00CBD0000003802409B
:1021600000700040083C4005003C02400030005038
:102170007047000010B51248006840F00100104997
:10218000086000200E49083108600D4800680D49BC
:1021900008400B4908600C48091D0860081F0068CA
:1021A00020F48020091F0860002005490C310860D8
:1021B000FFF74EFF4FF000600449086010BD0000BB
:1021C00000380240FFFFF6FE1030002408ED00E06A
:1021D0001CB50121880700F058F800283BD01E48A4
:1021E0000068B0F57A7F0AD301201B4908601B48BC
:1021F000007820B14FF480511948FEF7F3FC1948DC
:102200000078F8B118480068142816D30120FEF7AA
:102210000BFB0120009000208DF804000C208DF8AD
:10222000050001208DF806006846FEF71DFB002022
:102230000C49087001200C4908600B480068401CDC
:102240000949086004480068401C034908600121EE
:10225000880700F00BF81CBD400000104D00001076
:10226000000C02404E00001044000010CA430282DD
:10227000704721B1028842F00102028004E0028826
:102280004FF6FE731A400280704730B502460020B8
:1022900000230024158A05EA0103958905EA010453
:1022A00013B10CB1012000E0002030BD1AB18389C8
:1022B0000B43838102E083898B43838170474162B2
:1022C0007047000000220288184B98420ED0184B2D
:1022D00098420BD0B0F1804F08D0164B984205D0F1
:1022E000154B984202D0154B984204D14FF68F738C
:1022F0001A404B881A43124B984207D0114B984210
:1023000004D04FF6FF431A400B891A4302804B68F2
:10231000C3620B880385054B984202D0044B984258
:1023200001D18B7A0386012383827047000001402C
:10233000000401400004004000080040000C004080
:1023400000100040001400401FB501210846FEF7B0
:1023500079FD1C208DF8000007208DF80200012077
:102360008DF803006846FEF715FD0A20029042F240
:10237000CF00ADF804000020ADF8060001A94FF031
:102380008040FFF79FFF00214FF08040FFF797FF4D
:1023900001218807FFF76AFF012211469007FFF726
:1023A00085FF01218807FFF764FF1FBD10B540F2CC
:1023B0002551184800F09EF858B301F011FC18B3ED
:1023C0001448001D0088C4B24FF400511248FEF7B3
:1023D00009FC21461148006801F0E2FF104800683E
:1023E000401C0F490860084600684FF47A71B0FB42
:1023F000F1F201FB12000A4908600846006810B9B2
:1024000001200849087000BF40F22551014800F042
:1024100049F810BD00440040000C02405C00001070
:10242000540000104F00001010B540F2255118481C
:1024300000F060F858B301F0D3FB18B31448001D46
:102440000088C4B24FF480411248FEF7CBFB21460E
:102450001148006801F0A4FF10480068401C0F49B3
:102460000860084600684FF47A71B0FBF1F201FB96
:1024700012000A4908600846006810B9012008499E
:10248000087000BF40F22551014800F00BF810BD64
:1024900000480040000C024060000010580000108E
:1024A0005000001010B500220023A1F510646A3C12
:1024B00000D100BF0A1201249440A3B2DC4304807F
:1024C00010BD21B1828942F40052828104E08289E8
:1024D0004DF6FF731A408281704702460020B1F525
:1024E000007F00D100BF13880B4201D0012000E023
:1024F0000020704770B5024600240023002500200C
:10250000A1F510666A3E00D100BFC1F3421501F08B
:102510001F03012606FA03F3012D02D196893340E9
:1025200006E0022D02D1168A334001E0968A33403C
:102530000C12012606FA04F41688344013B10CB1CB
:10254000012000E0002070BDF0B503460024002605
:1025500000250020A1F510676A3F00D100BF184692
:10256000C1F3421401F01F06012707FA06F5012CFA
:1025700001D10C3004E0022C01D1103000E0143005
:102580001AB107682F43076002E00768AF4307608E
:10259000F0BD00002DE9FF4705460E460024A14688
:1025A00000BFA046B08900B100BF2C8A24F440547B
:1025B000F08804432C82AC8941F20C608443B088DB
:1025C00031890843718908430443AC81AC8A24F4FF
:1025D0004074B0890443AC826846FEF763FC20482F
:1025E000854202D01F48854202D1DDF80C9001E0FF
:1025F000DDF80890A88910F4004F08D009EBC90055
:1026000000EB091031684900B0FBF1F707E009EB76
:10261000C90000EB091031688900B0FBF1F76420B4
:10262000B7FBF0F004012009642101FB1078A889B0
:1026300010F4004F08D0322000EBC800B0FBF1F0DE
:1026400000F00700044308E0322000EB081064218A
:10265000B0FBF1F000F00F0004432C81BDE8FF87D0
:102660000010014000140140C1F30802828070474D
:1026700070B505460C4609E000BF288810F0400FF1
:10268000FBD021782846FFF7EFFF641C2078002854
:10269000F2D170BD00BFFEE70FB4054B10B503A922
:1026A000044A029800F018F810BC5DF814FB000012
:1026B000A13900083800001002E008C8121F08C144
:1026C000002AFAD170477047002001E001C1121FB3
:1026D000002AFBD1704700002DE9FF4F89B09B46CF
:1026E0000446002597E0252833D10027641C4E4975
:1026F000B84601222378203B02FA03F0084202D0B8
:102700000743641CF6E720782E2819D114F8010F2E
:1027100047F004072A280ED06FF02F022078A0F18E
:10272000300109290CD808EB880102EB410100EBCC
:102730000108641CF2E70A98641C50F8048B0A90A4
:10274000207800286BD0642808D0692806D0752826
:1027500020D05A460B9990476D1C5BE00A994FF0C8
:102760000A0901C90A91002804DAC0F100004FF0FB
:102770002D0102E0390504D52B218DF8201001210F
:1027800003E0F90704D02021F7E78A4608AE0EE0FF
:102790000021FAE70A994FF00A0901C90A91F7E7FF
:1027A0004946FDF740FD01F1300106F8011D002802
:1027B000F6D1ADEB060000F12009780701D44FF007
:1027C0000108C84502DDA8EB090000E000208046B2
:1027D000002706E008A85A46C05D0B9990476D1C7B
:1027E0007F1C5745F6DB04E030205A460B99904792
:1027F0006D1CB8F10001A8F10108F5DC05E016F840
:10280000010B5A460B9990476D1CB9F10001A9F1D3
:102810000109F4DC641C207800287FF464AF0DB05B
:102820002846BDE8F08F00000928010070B5044675
:102830000D46607801232A4604F1300100F088FC3F
:1028400008B1032070BD94F82E1294F82F0241EACB
:102850000020A0F52A41553901D00220F2E794F872
:102860006900010694F8680041EA004194F86700A5
:1028700041EA002094F86610084320F07F400E499A
:10288000884201D10020DDE794F88500010694F824
:10289000840041EA004194F8830041EA002094F862
:1028A0008210084320F07F400349884201D1002074
:1028B000C8E70120C6E7000046415400024600E098
:1028C000521C107810B110788842F9D110787047F6
:1028D0002DE9F74F88B008980068019001980078BA
:1028E00030380790079809280AD8019840783A2884
:1028F00006D10198801C019008990198086001E0B8
:1029000000200790079818B10B200BB0BDE8F08F9E
:10291000D049079851F82040099804600CB90C2060
:10292000F3E7207878B1607800F05FFC804618F01B
:10293000010F08D10A9820B118F0040F01D00A2025
:10294000E3E70020E1E700202070079860706078DE
:1029500000F0EEFB804618F0010F01D00320D4E711
:102960000A9820B118F0040F01D00A20CDE74FF0EB
:10297000000B59462046FFF759FF054600BF012DC1
:1029800021D14FF0000ABAF1000F03D0AAF10100E3
:1029900000F0FF0A4FF4DF7000EB0A1104F1300081
:1029A0000F18387978B1F87A0106B87A41EA00410F
:1029B000787A41EA0020397A40EA010B59462046EC
:1029C000FFF734FF0546032D01D101209DE70DB12E
:1029D0000D209AE73B20015D94F83C0041EA00207D
:1029E000B0F5007F01D00D208FE74620015D94F8FF
:1029F000470041EA0029B9F1000F0ED194F85700C1
:102A0000010694F8560041EA004194F8550041EA65
:102A1000002094F8541040EA0109C4F81C904020AA
:102A2000065DE670012E03D0022E01D00D206CE76A
:102A300009FB06F93D20005D0646A07016B1701E28
:102A4000304201D00D2060E74120015D94F8420042
:102A500041EA00202081207A10F00F0F01D00D20D4
:102A600053E74320015D94F8440041EA00200690BA
:102A7000069870B994F85300010694F8520041EAA0
:102A8000004194F8510041EA002094F850100843A6
:102A900006903E20015D94F83F0041EA002002903C
:102AA000029808B90D2030E702984844218900EBCC
:102AB00011100590DDE90501814201D20D2024E7C6
:102AC000DDE90510401AA178B0FBF1F004900498FC
:102AD00008B90D2019E7012540F6F67104988842DF
:102AE00000D302254FF6F6710498884200D30325DF
:102AF0000498801CA06105985844A062029858442C
:102B00002062032D16D1208908B10D20FDE694F82E
:102B10005F00010694F85E0041EA004194F85D0010
:102B200041EA002094F85C1008436062A0698000CC
:102B3000039014E0208908B90D20E6E6206A484495
:102B40006062022D02D1A069400007E0207E00F003
:102B50000100A16901EB410100EB51000390E16923
:102B6000039800F2FF10B1EB502F01D20D20CCE6FC
:102B70004FF0FF3020610020E060032D5CD16071D8
:102B800094F8601094F8610041EA002058446061B4
:102B90006078012304F13001626900F0D9FAE8BBE2
:102BA00094F82E1294F82F0241EA0020A0F52A4151
:102BB000553941D13320005D01063220005D41EAE4
:102BC00000413120005D41EA002094F830100843B4
:102BD0002149884230D194F81702010694F8160270
:102BE00041EA004194F8150241EA002094F81412D9
:102BF00008431A4988421FD194F81F02010694F82D
:102C00001E0241EA004194F81D0241EA002094F8B6
:102C10001C120843E06094F81B0200E00CE001067F
:102C200094F81A0241EA004194F8190241EA00209E
:102C300094F8181208432061257009480088401C48
:102C400080B207490880E0800020E062207100BF68
:102C50005BE6000010000010525261417272416147
:102C6000140000100246891E9069801E884201D817
:102C7000002070479378906A01FB0300F9E72DE983
:102C8000F04704468946B9F1000F06D1E76817B14D
:102C9000A069B84211D801270FE04946204600F04C
:102CA000D5FE0646022E02D20120BDE8F087A069BB
:102CB000B04201D93046F8E74F463D4600BF6D1C93
:102CC000A069A84204D80225BD4201D90020ECE742
:102CD0002946204600F0BAFE064606B909E0701CF7
:102CE00001D0012E01D13046DFE7BD42E7D10020FF
:102CF000DBE700BF6FF070422946204601F074FB0D
:102D00008046B8F1000F08D1B9F1000F05D02A466E
:102D10004946204601F068FB8046B8F1000F09D112
:102D2000E5602069401C0DD02069401E2061012013
:102D3000607107E0B8F1010F02D14FF0FF3000E001
:102D4000012005462846B0E72DE9F35F0198D0F849
:102D5000009001E009F1010999F800002F28F9D04D
:102D600099F800005C28F5D0009886690B22202194
:102D7000304601F07BFA00252F46AB464FF0080A9B
:102D800000BF58460BF1010B19F80040202C03DD61
:102D90002F2C01D05C2C00D157E02E2C01D05745B0
:102DA0000DD3BAF1080F01D12E2C02D00620BDE8B8
:102DB000FC9F08274FF00B0AA806050EE1E7802CC0
:102DC00001DB45F00305812C01DB9F2C03DDE02CAA
:102DD00020DBFC2C1EDC58460BF1010B19F800809F
:102DE000B8F1400F02DBB8F17E0F05DDB8F1800FBE
:102DF00006DBB8F1FC0F03DCAAF10100B84201D8F0
:102E00000620D4E738467F1C345438467F1C06F829
:102E1000008019E0214620A0FFF750FD08B10620F0
:102E2000C5E7412C04DB5A2C02DC45F0020508E022
:102E3000612C06DB7A2C04DC45F00105A4F12000AE
:102E4000C4B238467F1C34549BE700BF09EB0B012A
:102E500001980160202C01DC042000E000200446E1
:102E60000FB90620A3E73078E52801D1052030709E
:102E7000BAF1080F01D1A806050E05F003000128DC
:102E800001D144F0100405F00C00042801D144F0F5
:102E90000804F47200208AE7222A2B2C3A3B3C3D9E
:102EA0003E3F5B5D7C7F00002DE9F0410446002140
:102EB000204600F0E8F8054615B12846BDE8F08147
:102EC00000BF2169206801F0DBF9054605B116E075
:102ED000666937780FB9042511E0F07A10F0080F11
:102EE00006D10B223046A16901F0A0F900B906E035
:102EF0000021204600F006F80546002DE1D000BF75
:102F00002846DBE72DE9F0410446884600BFE0880B
:102F1000401C86B20EB1206910B90420BDE8F081D2
:102F200016F00F0F6ED12069401C2061E06828B9AF
:102F300020680089B04265DC0420EFE720688078D3
:102F4000401E10EA161F5DD1E168206800F07EFD8A
:102F50000546012D01D80220E0E7681C01D10120BF
:102F6000DCE720688069A84246D8B8F1000F01D19B
:102F70000420D3E7E1682068FFF781FE05460DB91C
:102F80000720CBE7012D01D10220C7E7681C01D142
:102F90000120C3E70021206801F072F908B1012087
:102FA000BCE7216801F130004FF40072002101F00C
:102FB0005DF929462068FFF755FE2168C8620027A1
:102FC00010E00120216808710021206801F058F903
:102FD00008B10120A2E72068C06A401C2168C862CD
:102FE000781CC7B220688078B842EADC2068C06AE2
:102FF000C01B2168C86200BFE56029462068FFF752
:1030000031FE2061E6802068303006F00F0100EBD1
:1030100041106061002081E72DE9F0410446002164
:10302000204600F030F80546ADB900BF21692068A0
:1030300001F026F9054605B10CE060690678E52E39
:1030400000D006B906E001212046FFF75BFF0546E8
:10305000002DEBD000BF9DB92169206801F010F967
:1030600005466DB9676920220021384601F0FEF857
:103070000B223846A16901F0ECF8012021680871A3
:103080002846BDE8F0812DE9F04104460E46E68071
:10309000A568012D03D020688069A84202D80220CB
:1030A000BDE8F0812DB920680078032801D120689F
:1030B000456A65B9E56020680089B04201DC0220FC
:1030C000EEE72068406A00EB1610206120E02068DF
:1030D0008078070112E02946206800F0B7FC054619
:1030E000681C01D10120DBE7022D03D32068806931
:1030F000A84201D80220D3E7F01B86B2BE42EADA2A
:10310000E56029462068FFF7ADFD00EB1610206151
:103110002068303006F00F0100EB411060610020A4
:10312000BEE7000000200149087070474800001009
:1031300070B5054600240DB144F00104FEF77EFA97
:1031400008B144F00104204670BD034600207047DA
:103150002DE9F043ADF5017D81460C4616469846B3
:10316000FEF75EF8012804D003200DF5017DBDE8CF
:10317000F08314F0030F1DD0002711E03246761CB7
:10318000012301A94846FFF7E3FF074607B10EE018
:103190004FF4007201A92046FDF71AF804F50074F7
:1031A0005FEA0800A8F1010101F0FF08E6D100BFC5
:1031B0003846DAE743464FF4007231462046FEF7C0
:1031C00031FD05467DB9FEF701FE054600BFFEF75D
:1031D00026FA07460128FAD0022F00D00DB10120AF
:1031E000C3E70020C1E70120BFE770B50546002412
:1031F000FEF716F8012801D044F00204204670BD05
:103200002DE9F043ADF5017D81460C461646984602
:10321000FEF706F8012804D003200DF5017DBDE876
:10322000F08314F0030F1DD0002711E04FF400725B
:10323000214601A8FCF7CCFF3246761C012301A9E8
:103240004846FFF7DDFF074607B108E004F50074C4
:103250005FEA0800A8F1010101F0FF08E6D100BF14
:103260003846DAE743464FF4007231462046FEF70F
:1032700029FE05467DB9FEF7E7FD054600BFFEF7CE
:10328000CEF907460128FAD0022F00D00DB1012057
:10329000C3E70020C1E70120BFE70000012001498A
:1032A000087070474800001070B50446204600F0D2
:1032B000C6F905460DB900202060284670BD2DE9ED
:1032C000F04704460E46A188206801F0C4F9824602
:1032D000BAF1000F02D05046BDE8F087A07910F097
:1032E000800F01D00220F7E7E068B04204D2A07955
:1032F00010F0020F00D1E668D4F808904FF00008F3
:10330000C4F80880002E77D0206880784702B9F191
:10331000000F11D0701EB0FBF7F1A9F10100B0FB56
:10332000F7F0814208D3A9F10100791E8843A0601B
:10333000A068361A656918E02569ADB900212068D2
:10334000FFF79DFC0546012D05D1A07940F08000D6
:10335000A0710220C0E7681C05D1A07940F0800070
:10336000A0710120B8E725616561002D44D029E0F6
:10337000A07910F0020F07D029462068FFF77FFCE4
:10338000054635B93E461FE02946206800F05EFB41
:103390000546681C05D1A07940F08000A07101208D
:1033A0009AE7012D03D920688069A84205D8A07941
:1033B00040F08000A07102208EE76561A06838446B
:1033C000A060F61BBE42D3D800BFA0683044A06006
:1033D000F005C00D10D029462068FFF743FC804659
:1033E000B8F1000F06D1A07940F08000A071022052
:1033F00072E701E008EB56282089C005C00D2AD0ED
:10340000A069404527D0A07910F0400F12D0216864
:103410004878012304F12401A269FFF7F1FE28B1E5
:10342000A07940F08000A071012055E7A07920F03C
:103430004000A071216848780123424604F124012C
:10344000FFF786FE28B1A07940F08000A07101202E
:1034500042E7C4F81880D4E90201884205D9A0687F
:10346000E060A07940F02000A071504634E70000F1
:103470000246012A01DB0B207047074850F8223032
:103480000BB10020187009B100200870024840F804
:1034900022100020F0E70000100000102DE9F74393
:1034A0008AB0054616460020286006F01F0626F062
:1034B000010203A90BA8FFF70BFA0746CDF824D0A9
:1034C00027B903A80B9900F01BFA0746089C0FB90F
:1034D00004B9062716F01C0F57D04FB1042F03D1A3
:1034E00003A8FFF799FD074646F00806089C09E087
:1034F000E07A10F0110F01D0072703E016F0040F57
:1035000000D00827002F3FD116F0080F3CD000F064
:103510000FFB804684F80E804FEA1821E1734FEAD2
:10352000184121744FEA186161740020E07220771D
:1035300000216177A177E177A17EE07E41EA002159
:10354000227D607D42EA002041EA00490020A07609
:103550000021E17620756175012003990871B9F1A8
:10356000000F11D00398D0F82C804946039800F042
:10357000D9FF074647B9A9F101000399C860414640
:10358000039800F07DFE07460EE06FB9E07A10F078
:10359000100F01D0042707E016F0020F04D0E07AE4
:1035A00010F0010F00D0072747B916F0080F01D01F
:1035B00046F020060398C06AE8612C62F7B9AE7144
:1035C000A17EE07E41EA0021227D607D42EA00206A
:1035D00041EA00402861E07F0106A07F41EA004106
:1035E000607F41EA0020217F0843E8600020A86056
:1035F000A861039828600398C088A88038460DB059
:10360000BDE8F08333B58BB00D46002204A90BA8AA
:10361000FFF75EF904467CB901A80A9004A80B994B
:1036200000F06EF904463CB9099820B1294604A877
:1036300000F080FA00E0062420460DB030BD2DE9F0
:10364000F0410446A188206801F005F80746002FE4
:103650004ED1A07910F0200F4AD0A07910F0400F81
:103660000FD021684878012304F12401A269FFF7F3
:10367000C7FD10B10120BDE8F081A07920F0400025
:10368000A071E169206800F0FBFD0746002F2FD1F3
:10369000256AE87A40F02000E872207B2877A0892C
:1036A000010A6977E068010CA977E068010EE97703
:1036B000207CA876208A010AE9762069000C28750A
:1036C0002069010E697500F033FA0646AE75310ABD
:1036D000E975310C2976310E6976A07920F0200049
:1036E000A071012021680871206800F04FFF074693
:1036F0003846C0E72DE9FF4F83B0044615469B4688
:10370000049801900020CBF80000A188206800F008
:10371000A2FF0290029818B1029807B0BDE8F08F9E
:10372000A07910F0800F01D00220F6E7A07910F008
:10373000020F01D10720F0E7E0682844E1688842E1
:1037400000D20025CCE02089C005C00D77D12068CB
:103750008078401EA16800EA512000F0FF0ABAF10B
:10376000000F2AD1A06858B9D4F81080B8F1000F22
:103770000BD100212068FFF782FA8046206104E027
:1037800061692068FFF77BFA8046B8F1000F00D12D
:10379000A9E0B8F1010F05D1A07940F08000A07137
:1037A0000220BAE718F1010005D1A07940F08000AD
:1037B000A0710120B1E7C4F81480A07910F0400F87
:1037C00012D021684878012304F12401A269FFF78F
:1037D00017FD28B1A07940F08000A07101209CE77E
:1037E000A07920F04000A07161692068FFF73AFAE3
:1037F00006462EB9A07940F08000A07102208CE727
:1038000056444FEA5529B9F1000F2FD00AEB0900B1
:1038100021688978884203D920688078A0EB0A095A
:1038200009F0FF032168487832460199FFF7E8FC68
:1038300030B1A07940F08000A07101206DE72CE04C
:10384000A069801B48450ED2A069801B019A02EB3B
:1038500040214FF4007204F1240000F0FAFCA0793A
:1038600020F04000A0714FEA49272DE0A069B04246
:1038700012D0D4E9020188420ED22168487801238F
:10388000324604F12401FFF763FC28B1A07940F02F
:103890008000A071012040E7A6612089C0F30800E4
:1038A000C0F50077AF4200D92F462189C1F3080245
:1038B00004F1240150183A46019900F0CAFCA0799D
:1038C00040F04000A07100BF019838440190A0680A
:1038D0003844A060DBF800003844CBF80000ED1B52
:1038E000002D7FF430AF00BFD4E90201884201D936
:1038F000A068E060A07940F02000A07100200CE7F3
:103900002DE9F3410446019800782F2803D001984F
:1039100000785C2802D10198401C01900020A06032
:1039200001980078202807D200212046FFF7ABFB42
:103930000646002060612FE000BF01A92046FFF786
:1039400003FA064606B126E02046FFF7ADFA064622
:10395000A069C77A46B1042E00D01CE000BF17F062
:10396000040F00D1052616E017F0040F00D012E076
:103970006569E87A10F0100F01D105260BE0A97EE9
:10398000E87E41EA00212A7D687D42EA002041EA82
:103990000040A060D1E700BF3046BDE8FC810000D8
:1039A00070B504460D460A2C14D1124800680D2843
:1039B00010D00D200F49086000BF80210E48FEF78F
:1039C0008CFD0028F9D00B48008881B20A48FEF728
:1039D0004BFE01E00748046000BF80210648FEF767
:1039E0007CFD0028F9D0A1B20348FEF73DFE204639
:1039F00070BD0000300000100044004010B50028E9
:103A000021D0114B001F0022196803E0814203D826
:103A10000A4649680029F9D152B11368841A9C42B8
:103A200004D1006818441060104602E0506000E0C5
:103A3000186039B102680B1A934203D10B681A441B
:103A400002604968416010BD640000102DE9F0413A
:103A500005460C46022C02D3A869A04202D80120D8
:103A6000BDE8F0812878012804D002282CD0032852
:103A70005AD13DE0274607EB5707286A00EB57214C
:103A8000284600F0FDFB00B14EE0C7F3080105F148
:103A9000300010F801807F1C286A00EB572128466F
:103AA00000F0EEFB00B13FE0C7F3080105F1300084
:103AB000405C48EA002814F0010F02D04FEA1810C9
:103AC000CEE7C8F30B00CBE7286A00EB14212846A9
:103AD00000F0D6FB00B127E040F2FF1000EA4401FD
:103AE00005F130000E183078717840EA0120B7E710
:103AF000286A00EBD411284600F0C2FB00B113E0A5
:103B000040F2FF1000EA840105F130000E18F07851
:103B10000006B17840EA0140717840EA012031782E
:103B2000084320F070409BE700BF4FF0FF3097E75D
:103B300000207047F0B505460B4603F109022F69D6
:103B4000002F40D06869067B00210AE0445C202CED
:103B500000D108E0052C00D1E52400BF02F8014B9C
:103B6000491C0829F2D300BF077A202F0FD02E2737
:103B700002F8017B082107E0445C202C00D105E01D
:103B800000BF02F8014B491C0B29F5D300BFC77ACF
:103B90001F72C77F4FEA076C877F4CEA074C477F4D
:103BA0004CEA072790F81CC047EA0C071F6090F802
:103BB00018C0477E4CEA07279F8090F816C0C77D43
:103BC0004CEA0727DF8000271770F0BD10B50420EE
:103BD00000F0F6FA044600202060204610BD0000E8
:103BE000014800787047000048000010ADF5D66D20
:103BF000FCF74CFFFDF7B9F8FCF7F0FDFEF7A4FB6E
:103C00004FF49650FCF7F4FF4FF49650FDF758F838
:103C1000FFF7DCFFE6490860FFF7D8FFE5490860D9
:103C20004FF40C7102A8FCF7ECFA02A90020FFF790
:103C30001FFC044624B12146DFA0FEF72DFD03E062
:103C4000E2A1E648FEF714FDB1E1E548007800285E
:103C50007ED0012802D003287BD11CE1FFF71EFB98
:103C60004FF48051DF48FCF7BBFF0120DE490870AC
:103C70004FF409710DF25C40FCF7C3FA18210DF501
:103C8000D360FCF7BEFA1322D8490DF25C40FFF76F
:103C900005FC044624B12146D5A0FEF7FDFC03E057
:103CA000DAA1CE48FEF7E4FC0DF5D361CF48FFF76B
:103CB000A9FC0446DDA0DDF89816FEF7EDFC0DF238
:103CC0005C40DDF89816FFF7FAFA04465CB9DC4868
:103CD000FCF7A2FA054601AB2A46D9490DF25C4031
:103CE000FFF708FD044624B12146D6A0FEF7D4FC18
:103CF00003E0DFA1B948FEF7BBFC0DF25C40FFF723
:103D0000D3FA04464FF409718EA8FCF77AFA182109
:103D10000DF5D060FCF775FA1322DC498EA8FFF789
:103D2000BDFB044624B12146D9A0FEF7B5FC03E053
:103D3000DEA1AA48FEF79CFC0DF5D061D348FFF741
:103D400061FC0446B9A0DDF88016FEF7A5FC01E091
:103D500024E02BE18EA8DDF88016FFF7B0FA0446C8
:103D600054B9DA48FCF758FA054601AB2A46D74958
:103D70008EA8FFF7BFFC044624B12146D4A0FEF76D
:103D80008BFC03E0DDA19548FEF772FC8EA8FFF7DF
:103D90008BFA044603209249087007E1FFF7C2F945
:103DA0000020914908704FF480518E48FCF716FFAF
:103DB0004FF400418B48FCF713FF13228B490DF29F
:103DC0005C40FFF76BFB04460DF5D3618748FFF7B6
:103DD00019FC04460DF25C40DDF89816FFF76FFA07
:103DE0000446BCB9CC4801687148006800F0B8FAD4
:103DF000054601ABC848294602680DF25C40FFF752
:103E000079FC0446C5A17548FEF732FC2846FFF749
:103E1000F5FD03E0C8A17148FEF72AFC0DF25C40F5
:103E2000FFF742FA0446132298498EA8FFF736FBA3
:103E300004460DF5D0619548FFF7E4FB04468EA8D3
:103E4000DDF88016FFF73BFA044694B9C2480168D2
:103E50005848006800F084FA054601ABBE48294680
:103E600002688EA8FFF746FC04462846FFF7C6FD09
:103E700000BF8EA8FFF718FA04464FF400415948D6
:103E8000FCF7ACFE0020A4490860B349086002209A
:103E9000534908708AE0B1480078002842D00020D9
:103EA000AE4908704FF400414E48FCF799FE1322CA
:103EB0004E490DF25C40FFF7F1FA04460DF5D3616F
:103EC0004A48FFF79FFB04460DF25C40DDF8981668
:103ED000FFF7F5F90446BCB94FF47A71344800682D
:103EE00000F03EFA054601AB4FF47A7229460DF216
:103EF0005C40FFF7FFFB044688A13848FEF7B8FB9B
:103F00002846FFF77BFD03E095A13448FEF7B0FBA0
:103F10000DF25C40FFF7C8F904464FF40041314808
:103F2000FCF75CFE9648007800283ED000209449BB
:103F300008704FF400412B48FCF752FE13225349FE
:103F40008EA8FFF7ABFA04460DF5D0614F48FFF796
:103F500059FB04468EA8DDF88016FFF7B0F9044639
:103F6000B4B94FF47A711348006800F0F9F90546C6
:103F700001AB4FF47A7229468EA8FFF7BBFB0446CB
:103F800080A11648FEF774FB2846FFF737FD03E0D3
:103F900083A11248FEF76CFB8EA8FFF785F9044653
:103FA0004FF400410F48FCF719FE00BF00BF4CE67C
:103FB0005C00001060000010726573203D202564D5
:103FC00020665F6D6F756E740A0000005344206DAB
:103FD0006F756E7465640D0A0000000000440040B7
:103FE0004C000010000C02404D000010BE460008BE
:103FF000726573203D20256420665F6F70656E20BA
:1040000055415254322E5458540A000046696C658A
:104010002055415254322E545854206372656174B5
:1040200065642F6F70656E65640D0A00656E6420AF
:104030006F662066696C65202564200A0000000018
:1040400080460008726573203D2025642050726F01
:10405000626CE86D6520E96372697475726520664B
:104060006963686965722055415254320A00000044
:1040700046696C652055415254322E54585420776D
:1040800072697474656E0D0A00000000C84600086D
:10409000726573203D20256420665F6F70656E2019
:1040A00055415254332E5458540A000046696C65E9
:1040B0002055415254332E54585420637265617414
:1040C00065642F6F70656E65640D0A009F46000879
:1040D000726573203D2025642050726F626CE86D1C
:1040E0006520E96372697475726520666963686941
:1040F00065722055415254330A00000046696C65D0
:104100002055415254332E54585420777269747498
:10411000656E0D0A000000005400001046696C65D1
:104120002055415254322E54585420777269747479
:10413000656E206F6B0D0A0046696C652055415213
:1041400054322E5458542070726F626CE86D6520A2
:1041500077720D0A00000000580000104F00001098
:1041600046696C652055415254322E545854207083
:10417000726F626C656D652077720D0A0000000039
:104180005000001046696C652055415254332E543E
:104190005854207772697474656E206F6B0D0A0035
:1041A00046696C652055415254332E545854207042
:1041B000726F626C656D652077720D0A00000000F9
:1041C000F0B50B30154D20F007010024144A0FE024
:1041D00003688B420BD38B4205D95E1A431847689C
:1041E000C3E9006700E04368136002C004E0021DF9
:1041F00010680028ECD12046002802D1286808B1B8
:104200000020F0BD064A07481060074A121A22F043
:104210000702C0E9002401202860D7E768000010E9
:10422000640000100400002000000120F0B50346E7
:104230001C460D46002000BF1600A2F1010207D067
:1042400014F8017B15F801CBA7EB0C063000F3D076
:10425000F0BD70B503460C4603E014F8015B03F8AB
:10426000015B1500A2F10102F7D170BD30B5034624
:1042700001E003F8011B1400A2F10102F9D130BDE5
:104280002DE9F04104460D46E66AAE422FD0207972
:1042900008B360780123324604F13001FEF7B0FF25
:1042A00010B10120BDE8F08100202071D4E9071091
:1042B0000844B0420FD9E7780AE0E0690644607824
:1042C0000123324604F13001FEF79AFF781EC7B28F
:1042D000012FF2DC00BF55B1607801232A4604F1BA
:1042E0003001FEF735FF08B10120DBE7E562002071
:1042F000D8E7000070B50446002614B913A0FEF7F5
:10430000CBF9002240F225511348FEF71DF9002297
:1043100040F225511148FEF717F9206838B1256899
:104320002E78686820602846FFF768FB00BF0122EE
:1043300040F225510848FEF707F9012240F22551C5
:104340000648FEF701F9304670BD00004341434185
:1043500020212121000000000048004000440040CE
:104360002DE9F04107460C4600252046FFF728FFBF
:10437000064607B116B907A0FEF78EF9002504E03E
:104380003846FFF7B7FF70556D1CA542F8D330468D
:10439000BDE8F0814341434120212121000000007C
:1043A0002DE9F04104460F460820FFF709FF0546B6
:1043B000002604B115B909A0FEF76EF92F70002090
:1043C0006860206838B1266800E076687068002868
:1043D000FBD1756000E02560BDE8F08143414341B9
:1043E00020212121000000002DE9F04705460E465E
:1043F0001746022E02D3A869B04202D84FF0020835
:104400008DE02878012804D0022843D003287DD1EC
:1044100056E0B14609EB5909286A00EB59212846B4
:10442000FFF72EFF8046B8F1000F00D074E0C9F30B
:10443000080105F130000C1816F0010F04D0F9B294
:10444000207861F31F1000E03846207009F101095F
:1044500001202871286A00EB59212846FFF710FF38
:104460008046B8F1000F00D056E0C9F3080105F10D
:1044700030000C1816F0010F02D0C7F3071007E048
:10448000207800F0F000C7F3072101F00F01084386
:10449000207041E0286A00EB16212846FFF7F0FE65
:1044A0008046B8F1000F00D036E040F2FF1000EA7D
:1044B000460105F130000C182770380A60702BE0B7
:1044C000286A00EBD6112846FFF7DAFE8046B8F1DD
:1044D000000F00D020E040F2FF1000EA860105F155
:1044E00030000C18E0780006A17840EA01406178BD
:1044F00040EA01202178084300F07040074327700C
:10450000380A6070380CA070380E00E001E0E070EE
:1045100002E04FF0020800BF00BF012028714046B2
:10452000BDE8F0872DE9F04104460E46022E02D385
:10453000A069B04201D8022725E000271FE03146DC
:104540002046FFF783FA054605B91BE0012D01D18E
:10455000022717E0681C01D1012713E00022314631
:104560002046FFF741FF074607B10BE02069401CDA
:1045700004D02069401C2061012060712E46A06992
:10458000B042DCD800BF3846BDE8F08170B50446C3
:1045900000212046FFF774FE0546002D59D12078F2
:1045A00003284FD1607900284CD00020E0624FF4FE
:1045B0000072002104F13000FFF758FE552184F805
:1045C0002E12AA2184F82F12522084F83000522192
:1045D00031200155612132200155412133200155FF
:1045E000722184F8141284F81512412184F81612ED
:1045F000612184F81712217C84F81812208A010A9C
:1046000084F819122069010C84F81A122069010E2D
:1046100084F81B12217B84F81C12A089010A84F8FB
:104620001D12E068010C84F81E12E068010E84F887
:104630001F126078012304F130016269FEF7E0FD8A
:1046400000206071607800221146FEF77EFD00B107
:104650000125284670BD70B504460D4624B120786A
:1046600010B1E088A84201D0092070BD6078FEF743
:10467000BCFD10F0010F01D00320F6E70020F4E7A5
:104680000D0A0D0A4E6F7576656C6C65206361705E
:10469000747572652055415254320D0A0D0A000D91
:1046A0000A0D0A4E6F7576656C6C652063617074D7
:1046B0007572652055415254330D0A0D0A0055415B
:1046C0005254322E5458540055415254332E54589B
:1046D0005400000004470008000000106C000000B7
:1046E000B826000804470008000000200010010060
:1046F000C8260008704700086C000010D0000000B9
:10470000C82600080000000001020304010203049F
:10471000060708090000000000000000000000007B
:104720000000000000000000000000000000000089
:104730000000000000000000000000000000000079
:104740000000000001000000010000000000000067
:104750000200000000000000000000000000000057
:104760000000000000000000000000000000000049
:040000050800018965
:00000001FF
